{"abi":[{"type":"constructor","inputs":[{"name":"_messageTransmitter","type":"address","internalType":"address"},{"name":"_usdc","type":"address","internalType":"address"}],"stateMutability":"nonpayable"},{"type":"function","name":"claim","inputs":[{"name":"releaseId","type":"bytes32","internalType":"bytes32"}],"outputs":[],"stateMutability":"nonpayable"},{"type":"function","name":"getRelease","inputs":[{"name":"releaseId","type":"bytes32","internalType":"bytes32"}],"outputs":[{"name":"recipient","type":"address","internalType":"address"},{"name":"amount","type":"uint256","internalType":"uint256"},{"name":"unlockTime","type":"uint256","internalType":"uint256"},{"name":"claimed","type":"bool","internalType":"bool"},{"name":"claimable","type":"bool","internalType":"bool"}],"stateMutability":"view"},{"type":"function","name":"messageTransmitter","inputs":[],"outputs":[{"name":"","type":"address","internalType":"address"}],"stateMutability":"view"},{"type":"function","name":"pendingReleases","inputs":[{"name":"","type":"bytes32","internalType":"bytes32"}],"outputs":[{"name":"recipient","type":"address","internalType":"address"},{"name":"amount","type":"uint256","internalType":"uint256"},{"name":"unlockTime","type":"uint256","internalType":"uint256"},{"name":"claimed","type":"bool","internalType":"bool"}],"stateMutability":"view"},{"type":"function","name":"relay","inputs":[{"name":"message","type":"bytes","internalType":"bytes"},{"name":"attestation","type":"bytes","internalType":"bytes"},{"name":"finalRecipient","type":"address","internalType":"address"},{"name":"unlockTimestamp","type":"uint256","internalType":"uint256"}],"outputs":[{"name":"releaseId","type":"bytes32","internalType":"bytes32"}],"stateMutability":"nonpayable"},{"type":"function","name":"usdc","inputs":[],"outputs":[{"name":"","type":"address","internalType":"address"}],"stateMutability":"view"},{"type":"event","name":"ReleaseScheduled","inputs":[{"name":"releaseId","type":"bytes32","indexed":true,"internalType":"bytes32"},{"name":"recipient","type":"address","indexed":true,"internalType":"address"},{"name":"amount","type":"uint256","indexed":false,"internalType":"uint256"},{"name":"unlockTime","type":"uint256","indexed":false,"internalType":"uint256"}],"anonymous":false},{"type":"event","name":"Released","inputs":[{"name":"releaseId","type":"bytes32","indexed":true,"internalType":"bytes32"},{"name":"recipient","type":"address","indexed":true,"internalType":"address"},{"name":"amount","type":"uint256","indexed":false,"internalType":"uint256"}],"anonymous":false},{"type":"error","name":"AlreadyClaimed","inputs":[]},{"type":"error","name":"NoUSDCReceived","inputs":[]},{"type":"error","name":"NotRecipient","inputs":[]},{"type":"error","name":"RelayFailed","inputs":[]},{"type":"error","name":"ReleaseNotFound","inputs":[]},{"type":"error","name":"StillLocked","inputs":[{"name":"unlockTime","type":"uint256","internalType":"uint256"},{"name":"current","type":"uint256","internalType":"uint256"}]}],"bytecode":{"object":"0x60c03461009657601f6108aa38819003918201601f19168301916001600160401b0383118484101761009b57808492604094855283398101031261009657610052602061004b836100b1565b92016100b1565b9060805260a0526040516107e490816100c682396080518181816102b60152610487015260a051818181610116015281816103560152818161040701526104e20152f35b600080fd5b634e487b7160e01b600052604160045260246000fd5b51906001600160a01b03821682036100965756fe6080604052600436101561001257600080fd5b60003560e01c8063018027ca146103855780633e413bee14610340578063706b728a146102e55780637b04c181146102a05780637f698e921461021c5763bd66528a1461005e57600080fd5b3461021757602080600319360112610217576004356000818152600183526040902080546001600160a01b0392908316918215610205578233036101f35760028101548042106101d55750600381019283549360ff85166101c35760016044938392828a9860ff19161790550154937fc8fa66dff4b9073528c3f1bf21a8dc9a18fdf09847e88e96188bc953aef519f086604051878152a36000604051958694859363a9059cbb60e01b8552600485015260248401527f0000000000000000000000000000000000000000000000000000000000000000165af19081156101b75760009161018a575b501561014f57005b6064906040519062461bcd60e51b8252600482015260146024820152731554d110c81d1c985b9cd9995c8819985a5b195960621b6044820152fd5b6101aa9150823d84116101b0575b6101a28183610753565b810190610775565b38610147565b503d610198565b6040513d6000823e3d90fd5b604051630c8d9eab60e31b8152600490fd5b6044906040519063104d109160e21b82526004820152426024820152fd5b60405163586d335760e01b8152600490fd5b60405163050cc7ff60e31b8152600490fd5b600080fd5b3461021757602036600319011261021757600435600052600160205260a06040600020600180831b0381541690600181015460ff60036002840154930154161591829182610294575b8361028a575b6040519485526020850152604084015215606083015215156080820152f35b841515935061026b565b92508042101592610265565b34610217576000366003190112610217576040517f00000000000000000000000000000000000000000000000000000000000000006001600160a01b03168152602090f35b346102175760203660031901126102175760043560005260016020526080604060002060018060a01b038154169060018101549060ff6003600283015492015416916040519384526020840152604083015215156060820152f35b34610217576000366003190112610217576040517f00000000000000000000000000000000000000000000000000000000000000006001600160a01b03168152602090f35b346102175760803660031901126102175760043567ffffffffffffffff8111610217576103b6903690600401610725565b9060243567ffffffffffffffff8111610217576103d7903690600401610725565b604435939092916001600160a01b0385168503610217576370a0823160e01b6080908152306084526020906024817f00000000000000000000000000000000000000000000000000000000000000006001600160a01b03165afa9384156101b7576000946106ef575b9161048161046f94926020946040519687958695630afd9fa560e31b875260406004880152604487019161078d565b8481036003190160248601529161078d565b038160007f00000000000000000000000000000000000000000000000000000000000000006001600160a01b03165af19081156101b7576000916106d0575b50156106be576040516370a0823160e01b8152306004820152906020826024817f00000000000000000000000000000000000000000000000000000000000000006001600160a01b03165afa9182156101b75760009261068a575b508082039180831161066257146106785760005490600019821461066257600182016000556040516020810192468452306040830152606082015260608152608081019281841067ffffffffffffffff85111761064c57836040528151902092610100820181811067ffffffffffffffff82111761064c5760209585937f60d270df0513888969dac35a8ebcb6b24f4acec896f83794f80d0ecbe002513393604093845260018060a01b0383168152600360a083019188835260c0840160e0606435958683520193600085528960005260018d52876000209260018060a01b039051166bffffffffffffffffffffffff60a01b845416178355516001830155516002820155019051151560ff8019835416911617905582519586528786015260018060a01b031693a3604051908152f35b634e487b7160e01b600052604160045260246000fd5b634e487b7160e01b600052601160045260246000fd5b604051636c42174760e11b8152600490fd5b9091506020813d6020116106b6575b816106a660209383610753565b810103126102175751908361051b565b3d9150610699565b604051636db5217760e11b8152600490fd5b6106e9915060203d6020116101b0576101a28183610753565b836104c0565b9350909160203d60201161071e575b8061070c6020926080610753565b12610217576080519390929190610440565b503d6106fe565b9181601f840112156102175782359167ffffffffffffffff8311610217576020838186019501011161021757565b90601f8019910116810190811067ffffffffffffffff82111761064c57604052565b90816020910312610217575180151581036102175790565b908060209392818452848401376000828201840152601f01601f191601019056fea2646970667358221220a283fd58d79d85b66549907d8966a2398f98fc52b113cc05301deb6d30004e8164736f6c63430008140033","linkReferences":{}},"methodIdentifiers":{"claim(bytes32)":"bd66528a","getRelease(bytes32)":"7f698e92","messageTransmitter()":"7b04c181","pendingReleases(bytes32)":"706b728a","relay(bytes,bytes,address,uint256)":"018027ca","usdc()":"3e413bee"},"id":17}