{"abi":[{"type":"constructor","inputs":[{"name":"_messageTransmitter","type":"address","internalType":"address"},{"name":"_usdc","type":"address","internalType":"address"}],"stateMutability":"nonpayable"},{"type":"function","name":"claim","inputs":[{"name":"releaseId","type":"bytes32","internalType":"bytes32"}],"outputs":[],"stateMutability":"nonpayable"},{"type":"function","name":"computeReleaseId","inputs":[{"name":"sourceDomain","type":"uint32","internalType":"uint32"},{"name":"messageSender","type":"bytes32","internalType":"bytes32"},{"name":"finalRecipient","type":"address","internalType":"address"},{"name":"amount","type":"uint256","internalType":"uint256"},{"name":"unlockTimestamp","type":"uint256","internalType":"uint256"}],"outputs":[{"name":"","type":"bytes32","internalType":"bytes32"}],"stateMutability":"pure"},{"type":"function","name":"getRelease","inputs":[{"name":"releaseId","type":"bytes32","internalType":"bytes32"}],"outputs":[{"name":"recipient","type":"address","internalType":"address"},{"name":"amount","type":"uint256","internalType":"uint256"},{"name":"unlockTime","type":"uint256","internalType":"uint256"},{"name":"claimed","type":"bool","internalType":"bool"},{"name":"claimable","type":"bool","internalType":"bool"}],"stateMutability":"view"},{"type":"function","name":"handleReceiveMessage","inputs":[{"name":"sourceDomain","type":"uint32","internalType":"uint32"},{"name":"sender","type":"bytes32","internalType":"bytes32"},{"name":"messageBody","type":"bytes","internalType":"bytes"}],"outputs":[{"name":"","type":"bool","internalType":"bool"}],"stateMutability":"nonpayable"},{"type":"function","name":"messageTransmitter","inputs":[],"outputs":[{"name":"","type":"address","internalType":"address"}],"stateMutability":"view"},{"type":"function","name":"pendingReleases","inputs":[{"name":"","type":"bytes32","internalType":"bytes32"}],"outputs":[{"name":"recipient","type":"address","internalType":"address"},{"name":"amount","type":"uint256","internalType":"uint256"},{"name":"unlockTime","type":"uint256","internalType":"uint256"},{"name":"claimed","type":"bool","internalType":"bool"}],"stateMutability":"view"},{"type":"function","name":"usdc","inputs":[],"outputs":[{"name":"","type":"address","internalType":"address"}],"stateMutability":"view"},{"type":"event","name":"ReleaseScheduled","inputs":[{"name":"releaseId","type":"bytes32","indexed":true,"internalType":"bytes32"},{"name":"recipient","type":"address","indexed":true,"internalType":"address"},{"name":"amount","type":"uint256","indexed":false,"internalType":"uint256"},{"name":"unlockTime","type":"uint256","indexed":false,"internalType":"uint256"},{"name":"sourceDomain","type":"uint32","indexed":false,"internalType":"uint32"},{"name":"messageSender","type":"bytes32","indexed":false,"internalType":"bytes32"}],"anonymous":false},{"type":"event","name":"Released","inputs":[{"name":"releaseId","type":"bytes32","indexed":true,"internalType":"bytes32"},{"name":"recipient","type":"address","indexed":true,"internalType":"address"},{"name":"amount","type":"uint256","indexed":false,"internalType":"uint256"}],"anonymous":false},{"type":"error","name":"AlreadyClaimed","inputs":[]},{"type":"error","name":"HookDataTooShort","inputs":[]},{"type":"error","name":"MessageTooShort","inputs":[]},{"type":"error","name":"NotRecipient","inputs":[]},{"type":"error","name":"OnlyMessageTransmitter","inputs":[]},{"type":"error","name":"ReleaseAlreadyExists","inputs":[]},{"type":"error","name":"ReleaseNotFound","inputs":[]},{"type":"error","name":"StillLocked","inputs":[{"name":"unlockTime","type":"uint256","internalType":"uint256"},{"name":"current","type":"uint256","internalType":"uint256"}]}],"bytecode":{"object":"0x60c03461008857601f6107a738819003918201601f19168301916001600160401b0383118484101761008d57808492604094855283398101031261008857610052602061004b836100a3565b92016100a3565b9060805260a0526040516106ef90816100b882396080518181816102b8015261051e015260a05181818161012201526106060152f35b600080fd5b634e487b7160e01b600052604160045260246000fd5b51906001600160a01b03821682036100885756fe608060408181526004908136101561001657600080fd5b600092833560e01c9081633e413bee146105f25750806353fd4098146105a3578063706b728a1461054d5780637b04c181146105095780637f698e921461048957806396abeb70146102565763bd66528a1461007157600080fd5b34610252576020908160031936011261024e57823580855284835281852080546001600160a01b03929190831690811561023e5781330361022e576002810154804210610212575060038101805460ff8116610202579260016044938293828b989760ff19161790550154937fc8fa66dff4b9073528c3f1bf21a8dc9a18fdf09847e88e96188bc953aef519f0868951878152a3888651958694859363a9059cbb60e01b85528b85015260248401527f0000000000000000000000000000000000000000000000000000000000000000165af19081156101f8578591610194575b501561015c578380f35b5162461bcd60e51b81529182015260146024820152731554d110c81d1c985b9cd9995c8819985a5b195960621b604482015260649150fd5b9050823d84116101f1575b601f8101601f1916820167ffffffffffffffff8111838210176101de57849183918552810103126101da575180151581036101da5738610152565b8480fd5b634e487b7160e01b875260418652602487fd5b503d61019f565b82513d87823e3d90fd5b8651630c8d9eab60e31b81528990fd5b8760449187519163104d109160e21b8352820152426024820152fd5b845163586d335760e01b81528790fd5b845163050cc7ff60e31b81528790fd5b8380fd5b8280fd5b50823461048657606036600319011261048657610271610635565b602435916044359267ffffffffffffffff928385116102525736602386011215610252578487013592848411610486573660248588010111610486576001600160a01b03947f0000000000000000000000000000000000000000000000000000000000000000861633036104765760a88510610466578460641161043f576068870135948060a8116102525760c888013560e01c908160a8018060a811610453578082106104435711610252578789918101031261043f5760cc870135968688168098036102525760ec01359161034b83878a888861064d565b9687825281602052808a8320541661042f57895192608084019081118482101761041c5760209b50600363ffffffff947f227e8ee3d78f86064cb0e0eddbaf5db31f045455f1a69322e451654e88d599de9997948d60809a98958e8e968352845260208401918b835280850193888552606086019781895281526020819052209351166bffffffffffffffffffffffff60a01b845416178355516001830155516002820155019051151560ff8019835416911617905589519485528a85015216878301526060820152a35160018152f35b634e487b7160e01b835260418c52602483fd5b8951633817b4c960e11b81528b90fd5b5080fd5b8a516353bf652960e01b81528c90fd5b634e487b7160e01b855260118c52602485fd5b8751637f5e6be560e01b81528990fd5b87516324d6b22760e21b81528990fd5b80fd5b5090346102525760203660031901126102525760a0928291358152806020522090600180841b038254169160018101549060ff600360028301549201541615928392836104fd575b846104f3575b8151958652602086015284015215606083015215156080820152f35b85151594506104d7565b935081421015936104d1565b83823461043f578160031936011261043f57517f00000000000000000000000000000000000000000000000000000000000000006001600160a01b03168152602090f35b50903461025257602036600319011261025257608092829135815280602052209060018060a01b038254169160018101549160ff6003600284015493015416928151948552602085015283015215156060820152f35b83823461043f5760a036600319011261043f576105be610635565b604435926001600160a01b038416840361048657506020926105eb9160843591606435916024359061064d565b9051908152f35b84903461043f578160031936011261043f577f00000000000000000000000000000000000000000000000000000000000000006001600160a01b03168152602090f35b6004359063ffffffff8216820361064857565b600080fd5b93919290926040519363ffffffff6020860196168652604085015260018060a01b03166060840152608083015260a082015260a0815260c0810181811067ffffffffffffffff8211176106a35760405251902090565b634e487b7160e01b600052604160045260246000fdfea2646970667358221220f955287a60a03aab1a23567166be3a2f2400b7c7fe08676c0d0e12e95469dd0c64736f6c63430008140033","linkReferences":{}},"methodIdentifiers":{"claim(bytes32)":"bd66528a","computeReleaseId(uint32,bytes32,address,uint256,uint256)":"53fd4098","getRelease(bytes32)":"7f698e92","handleReceiveMessage(uint32,bytes32,bytes)":"96abeb70","messageTransmitter()":"7b04c181","pendingReleases(bytes32)":"706b728a","usdc()":"3e413bee"},"id":17}