{"abi":[{"type":"constructor","inputs":[{"name":"_messageTransmitter","type":"address","internalType":"address"},{"name":"_usdc","type":"address","internalType":"address"}],"stateMutability":"nonpayable"},{"type":"function","name":"claim","inputs":[{"name":"releaseId","type":"bytes32","internalType":"bytes32"}],"outputs":[],"stateMutability":"nonpayable"},{"type":"function","name":"getRelease","inputs":[{"name":"releaseId","type":"bytes32","internalType":"bytes32"}],"outputs":[{"name":"recipient","type":"address","internalType":"address"},{"name":"amount","type":"uint256","internalType":"uint256"},{"name":"unlockTime","type":"uint256","internalType":"uint256"},{"name":"claimed","type":"bool","internalType":"bool"},{"name":"claimable","type":"bool","internalType":"bool"}],"stateMutability":"view"},{"type":"function","name":"messageTransmitter","inputs":[],"outputs":[{"name":"","type":"address","internalType":"address"}],"stateMutability":"view"},{"type":"function","name":"owner","inputs":[],"outputs":[{"name":"","type":"address","internalType":"address"}],"stateMutability":"view"},{"type":"function","name":"pendingReleases","inputs":[{"name":"","type":"bytes32","internalType":"bytes32"}],"outputs":[{"name":"recipient","type":"address","internalType":"address"},{"name":"amount","type":"uint256","internalType":"uint256"},{"name":"unlockTime","type":"uint256","internalType":"uint256"},{"name":"claimed","type":"bool","internalType":"bool"}],"stateMutability":"view"},{"type":"function","name":"relay","inputs":[{"name":"message","type":"bytes","internalType":"bytes"},{"name":"attestation","type":"bytes","internalType":"bytes"},{"name":"finalRecipient","type":"address","internalType":"address"},{"name":"unlockTimestamp","type":"uint256","internalType":"uint256"}],"outputs":[{"name":"releaseId","type":"bytes32","internalType":"bytes32"}],"stateMutability":"nonpayable"},{"type":"function","name":"usdc","inputs":[],"outputs":[{"name":"","type":"address","internalType":"address"}],"stateMutability":"view"},{"type":"event","name":"ReleaseScheduled","inputs":[{"name":"releaseId","type":"bytes32","indexed":true,"internalType":"bytes32"},{"name":"recipient","type":"address","indexed":true,"internalType":"address"},{"name":"amount","type":"uint256","indexed":false,"internalType":"uint256"},{"name":"unlockTime","type":"uint256","indexed":false,"internalType":"uint256"}],"anonymous":false},{"type":"event","name":"Released","inputs":[{"name":"releaseId","type":"bytes32","indexed":true,"internalType":"bytes32"},{"name":"recipient","type":"address","indexed":true,"internalType":"address"},{"name":"amount","type":"uint256","indexed":false,"internalType":"uint256"}],"anonymous":false},{"type":"error","name":"AlreadyClaimed","inputs":[]},{"type":"error","name":"NoUSDCReceived","inputs":[]},{"type":"error","name":"NotRecipient","inputs":[]},{"type":"error","name":"RelayFailed","inputs":[]},{"type":"error","name":"ReleaseNotFound","inputs":[]},{"type":"error","name":"StillLocked","inputs":[{"name":"unlockTime","type":"uint256","internalType":"uint256"},{"name":"current","type":"uint256","internalType":"uint256"}]}],"bytecode":{"object":"0x60c0346100a957601f61094338819003918201601f19168301916001600160401b038311848410176100ae5780849260409485528339810103126100a957610052602061004b836100c4565b92016100c4565b600080546001600160a01b0319163317905560809190915260a05260405161086a90816100d982396080518181816102ef01526104d6015260a05181818160f80152818161038f0152818161045401526105310152f35b600080fd5b634e487b7160e01b600052604160045260246000fd5b51906001600160a01b03821682036100a95756fe608080604052600436101561001357600080fd5b60003560e01c908163018027ca146103be575080633e413bee14610379578063706b728a1461031e5780637b04c181146102d95780637f698e92146102555780638da5cb5b1461022c5763bd66528a1461006c57600080fd5b3461022757602080600319360112610227576004356000818152600283526040902080546001600160a01b0390811693918415610215578433036102035760028101548042106101e5575060038101805460ff81166101d35760019060ff19161790556001810154946040519063a9059cbb60e01b8252600482015285602482015283816044816000877f0000000000000000000000000000000000000000000000000000000000000000165af19081156101c75760009161019a575b501561015e575460405194855216927fc8fa66dff4b9073528c3f1bf21a8dc9a18fdf09847e88e96188bc953aef519f09190a3005b60405162461bcd60e51b81526004810184905260146024820152731554d110c81d1c985b9cd9995c8819985a5b195960621b6044820152606490fd5b6101ba9150843d86116101c0575b6101b281836107d9565b8101906107fb565b38610129565b503d6101a8565b6040513d6000823e3d90fd5b604051630c8d9eab60e31b8152600490fd5b6044906040519063104d109160e21b82526004820152426024820152fd5b60405163586d335760e01b8152600490fd5b60405163050cc7ff60e31b8152600490fd5b600080fd5b34610227576000366003190112610227576000546040516001600160a01b039091168152602090f35b3461022757602036600319011261022757600435600052600260205260a06040600020600180831b0381541690600181015460ff600360028401549301541615918291826102cd575b836102c3575b6040519485526020850152604084015215606083015215156080820152f35b84151593506102a4565b9250804210159261029e565b34610227576000366003190112610227576040517f00000000000000000000000000000000000000000000000000000000000000006001600160a01b03168152602090f35b346102275760203660031901126102275760043560005260026020526080604060002060018060a01b038154169060018101549060ff6003600283015492015416916040519384526020840152604083015215156060820152f35b34610227576000366003190112610227576040517f00000000000000000000000000000000000000000000000000000000000000006001600160a01b03168152602090f35b346102275760803660031901126102275760043567ffffffffffffffff8111610227576103ef9036906004016107ab565b60243567ffffffffffffffff81116102275761040f9036906004016107ab565b6044359490939192906001600160a01b0386168603610227576001600160a01b0386161561077857506040516370a0823160e01b8152306004820152926020846024817f00000000000000000000000000000000000000000000000000000000000000006001600160a01b03165afa9384156101c75760009461073e575b50906104d0602093926104be95966040519687958695630afd9fa560e31b8752604060048801526044870191610813565b84810360031901602486015291610813565b038160007f00000000000000000000000000000000000000000000000000000000000000006001600160a01b03165af19081156101c75760009161071f575b501561070d576040516370a0823160e01b8152306004820152906020826024817f00000000000000000000000000000000000000000000000000000000000000006001600160a01b03165afa9182156101c7576000926106d9575b50808203918083116106b157146106c7576001549060001982146106b157600182016001556040516020810192468452306040830152606082015260608152608081019281841067ffffffffffffffff85111761069b57836040528151902092610100820181811067ffffffffffffffff82111761069b5760209585937f60d270df0513888969dac35a8ebcb6b24f4acec896f83794f80d0ecbe002513393604093845260018060a01b0383168152600360a083019188835260c0840160e0606435958683520193600085528960005260028d52876000209260018060a01b039051166bffffffffffffffffffffffff60a01b845416178355516001830155516002820155019051151560ff8019835416911617905582519586528786015260018060a01b031693a3604051908152f35b634e487b7160e01b600052604160045260246000fd5b634e487b7160e01b600052601160045260246000fd5b604051636c42174760e11b8152600490fd5b9091506020813d602011610705575b816106f5602093836107d9565b810103126102275751908361056a565b3d91506106e8565b604051636db5217760e11b8152600490fd5b610738915060203d6020116101c0576101b281836107d9565b8361050f565b935091906020843d602011610770575b8161075b602093836107d9565b810103126102275792519290916104d061048d565b3d915061074e565b62461bcd60e51b815260206004820152600e60248201526d16995c9bc81c9958da5c1a595b9d60921b6044820152606490fd5b9181601f840112156102275782359167ffffffffffffffff8311610227576020838186019501011161022757565b90601f8019910116810190811067ffffffffffffffff82111761069b57604052565b90816020910312610227575180151581036102275790565b908060209392818452848401376000828201840152601f01601f191601019056fea2646970667358221220ad3f0bc3eea1529a6585bd7026847409b417bb93a43d42916b7075e82abca10164736f6c63430008140033","linkReferences":{}},"methodIdentifiers":{"claim(bytes32)":"bd66528a","getRelease(bytes32)":"7f698e92","messageTransmitter()":"7b04c181","owner()":"8da5cb5b","pendingReleases(bytes32)":"706b728a","relay(bytes,bytes,address,uint256)":"018027ca","usdc()":"3e413bee"},"id":21}