{"abi":[{"type":"constructor","inputs":[],"stateMutability":"nonpayable"},{"type":"function","name":"autoRelease","inputs":[{"name":"id","type":"uint256","internalType":"uint256"}],"outputs":[],"stateMutability":"nonpayable"},{"type":"function","name":"createEscrow","inputs":[{"name":"beneficiary","type":"address","internalType":"address"},{"name":"arbiter","type":"address","internalType":"address"},{"name":"token","type":"address","internalType":"address"},{"name":"amount","type":"uint256","internalType":"uint256"},{"name":"releaseTime","type":"uint256","internalType":"uint256"},{"name":"conditionType","type":"string","internalType":"string"},{"name":"conditionData","type":"bytes","internalType":"bytes"}],"outputs":[{"name":"id","type":"uint256","internalType":"uint256"}],"stateMutability":"nonpayable"},{"type":"function","name":"escrows","inputs":[{"name":"","type":"uint256","internalType":"uint256"}],"outputs":[{"name":"depositor","type":"address","internalType":"address"},{"name":"beneficiary","type":"address","internalType":"address"},{"name":"arbiter","type":"address","internalType":"address"},{"name":"token","type":"address","internalType":"address"},{"name":"amount","type":"uint256","internalType":"uint256"},{"name":"releaseTime","type":"uint256","internalType":"uint256"},{"name":"status","type":"uint8","internalType":"enum ConditionalEscrow.Status"},{"name":"resolution","type":"uint8","internalType":"enum ConditionalEscrow.Resolution"},{"name":"conditionType","type":"string","internalType":"string"},{"name":"conditionData","type":"bytes","internalType":"bytes"},{"name":"disputeReason","type":"string","internalType":"string"}],"stateMutability":"view"},{"type":"function","name":"getEscrow","inputs":[{"name":"id","type":"uint256","internalType":"uint256"}],"outputs":[{"name":"","type":"tuple","internalType":"struct ConditionalEscrow.EscrowData","components":[{"name":"depositor","type":"address","internalType":"address"},{"name":"beneficiary","type":"address","internalType":"address"},{"name":"arbiter","type":"address","internalType":"address"},{"name":"token","type":"address","internalType":"address"},{"name":"amount","type":"uint256","internalType":"uint256"},{"name":"releaseTime","type":"uint256","internalType":"uint256"},{"name":"status","type":"uint8","internalType":"enum ConditionalEscrow.Status"},{"name":"resolution","type":"uint8","internalType":"enum ConditionalEscrow.Resolution"},{"name":"conditionType","type":"string","internalType":"string"},{"name":"conditionData","type":"bytes","internalType":"bytes"},{"name":"disputeReason","type":"string","internalType":"string"}]}],"stateMutability":"view"},{"type":"function","name":"isExpired","inputs":[{"name":"id","type":"uint256","internalType":"uint256"}],"outputs":[{"name":"","type":"bool","internalType":"bool"}],"stateMutability":"view"},{"type":"function","name":"nextId","inputs":[],"outputs":[{"name":"","type":"uint256","internalType":"uint256"}],"stateMutability":"view"},{"type":"function","name":"owner","inputs":[],"outputs":[{"name":"","type":"address","internalType":"address"}],"stateMutability":"view"},{"type":"function","name":"raiseDispute","inputs":[{"name":"id","type":"uint256","internalType":"uint256"},{"name":"reason","type":"string","internalType":"string"}],"outputs":[],"stateMutability":"nonpayable"},{"type":"function","name":"release","inputs":[{"name":"id","type":"uint256","internalType":"uint256"}],"outputs":[],"stateMutability":"nonpayable"},{"type":"function","name":"resolveDispute","inputs":[{"name":"id","type":"uint256","internalType":"uint256"},{"name":"toBeneficiary","type":"bool","internalType":"bool"}],"outputs":[],"stateMutability":"nonpayable"},{"type":"event","name":"DisputeRaised","inputs":[{"name":"id","type":"uint256","indexed":true,"internalType":"uint256"},{"name":"by","type":"address","indexed":false,"internalType":"address"},{"name":"reason","type":"string","indexed":false,"internalType":"string"}],"anonymous":false},{"type":"event","name":"EscrowCreated","inputs":[{"name":"id","type":"uint256","indexed":true,"internalType":"uint256"},{"name":"depositor","type":"address","indexed":false,"internalType":"address"},{"name":"beneficiary","type":"address","indexed":false,"internalType":"address"},{"name":"arbiter","type":"address","indexed":false,"internalType":"address"},{"name":"token","type":"address","indexed":false,"internalType":"address"},{"name":"amount","type":"uint256","indexed":false,"internalType":"uint256"},{"name":"releaseTime","type":"uint256","indexed":false,"internalType":"uint256"},{"name":"conditionType","type":"string","indexed":false,"internalType":"string"}],"anonymous":false},{"type":"event","name":"EscrowReleased","inputs":[{"name":"id","type":"uint256","indexed":true,"internalType":"uint256"},{"name":"to","type":"address","indexed":false,"internalType":"address"},{"name":"amount","type":"uint256","indexed":false,"internalType":"uint256"}],"anonymous":false},{"type":"event","name":"EscrowResolved","inputs":[{"name":"id","type":"uint256","indexed":true,"internalType":"uint256"},{"name":"resolution","type":"uint8","indexed":false,"internalType":"enum ConditionalEscrow.Resolution"},{"name":"arbiter","type":"address","indexed":false,"internalType":"address"}],"anonymous":false}],"bytecode":{"object":"0x6080806040523461002857600080546001600160a01b031916331790556115cb908161002e8239f35b600080fdfe608080604052600436101561001357600080fd5b60003560e01c908163012f52ee146111c957508063137b526614610adb57806334b25ee21461081557806337bdc99b146106ea578063459b860e146105725780635aef573c1461035357806361b8ce8c146103355780637d19e596146100ed5780638da5cb5b146100c45763d9548e531461008d57600080fd5b346100bf5760203660031901126100bf5760043560005260016020526020600560406000200154421015604051908152f35b600080fd5b346100bf5760003660031901126100bf576000546040516001600160a01b039091168152602090f35b346100bf5760203660031901126100bf57606061014060405161010f816113bf565b60008152600060208201526000604082015260008382015260006080820152600060a0820152600060c0820152600060e0820152826101008201528261012082015201526004356000526001602052604060002060405161016f816113bf565b81546001600160a01b03908116825260018301548116602083015260028301548116604083015260038301541660608201526004808301546080830152600583015460a08301526006830154929060ff84169081101561031f5760c0830152600360ff8460081c16101561031f5761023d60099160ff61031b9560081c1660e085015260405161020d816102068160078601611329565b03826113dc565b610100850152604051610227816102068160088601611329565b6101208501526102066040518094819301611329565b6101408201526040519182916020835260018060a01b03815116602084015260018060a01b03602082015116604084015260018060a01b03604082015116606084015260018060a01b036060820151166080840152608081015160a084015260a081015160c08401526102b860c082015160e08501906113fe565b6102cb60e082015161010085019061140b565b6101008101516102ea6101609182610120870152610180860190611418565b9061014061030a61012085015193601f19948589830301848a0152611418565b930151918584030190850152611418565b0390f35b634e487b7160e01b600052602160045260246000fd5b346100bf5760003660031901126100bf576020600254604051908152f35b346100bf5760403660031901126100bf5760043567ffffffffffffffff6024358181116100bf57610388903690600401611458565b83600052600192602093808552604060002060018060a01b0382818354163314928315610563575b50505015610530578560005280855260ff60066040600020015416600481101561031f576103de901561155a565b8560005280855260096040600020600681018360ff198254161790550191831161051a576104168361041084546112ef565b846114e5565b6000601f841160011461048f579261047f928180604097947f1b84372106d77c6daea0dda35bbc0229d10a83f58ec8990928849251936823419997600093610484575b501b906000198460031b1c19161790555b84519485943386528501526040840191611539565b0390a2005b86013592508b610459565b601f1984169083600052866000209160005b818110610505575092859261047f95927f1b84372106d77c6daea0dda35bbc0229d10a83f58ec899092884925193682341999760409996106104eb575b505082811b01905561046a565b850135600019600386901b60f8161c1916905589806104de565b878301358455928401929188019188016104a1565b634e487b7160e01b600052604160045260246000fd5b60405162461bcd60e51b815260048101869052600b60248201526a4e6f74206120706172747960a81b6044820152606490fd5b015416331490508782816103b0565b346100bf576020806003193601126100bf5760043590816000526001815260ff60066040600020015416600481101561031f576105af901561155a565b81600052600181526040600020600581015442106106b25760068101805460ff1916600217905560038101546001820180546004938401805460405163a9059cbb60e01b81526001600160a01b039384169681019690965260248601529394909281908690851681600081604481015b03925af19485156106a6577f6244ed823ca6be0f11bc890c3fafcf3c29cb23420c14243642e930b5e07e6d0a95610678575b505054915460408051929093166001600160a01b031682526020820152908190810161047f565b8161069792903d1061069f575b61068f81836113dc565b810190611486565b508580610651565b503d610685565b6040513d6000823e3d90fd5b60405162461bcd60e51b815260048101839052601060248201526f151a5b59481b9bdd08195e1c1a5c995960821b6044820152606490fd5b346100bf576020806003193601126100bf5760043590816000526001815260ff60066040600020015416600481101561031f57610727901561155a565b6000828152600182526040902080546001600160a01b039190821633148015610806575b600582015442101581156107fe575b50156107c457600681018054600260ff1990911617905560038101546001820180546004938401805460405163a9059cbb60e01b81529287166001600160a01b0316958301959095526024820194909452949293929091819086908516816000816044810161061f565b60405162461bcd60e51b815260048101849052601260248201527110d85b9b9bdd081c995b19585cd9481e595d60721b6044820152606490fd5b90508561075a565b5081600182015416331461074b565b346100bf5760403660031901126100bf5760043560243580151581036100bf5760008281526001602081815260409092206002015490926001600160a01b039182163303610aa8578460005283835260ff60066040600020015416600481101561031f5784610884911461155a565b846000528383526040600020906006820190815490600360ff1983161783556000146109ab5750805461010061ff0019909116179055600381015484820180546004938401805460405163a9059cbb60e01b81529287166001600160a01b031695830195909552602482019490945292949092909182908290604490829060009089165af180156106a6577f6244ed823ca6be0f11bc890c3fafcf3c29cb23420c14243642e930b5e07e6d0a9688937fb0a07f1a24defb90c26c0b6bce3c0129524c6ee69967cd7b8c45dbefdb8dd2659360409361098e575b5082519182523390820152a254915460408051929093166001600160a01b031682526020820152908190810161047f565b6109a490823d841161069f5761068f81836113dc565b508a61095d565b61020361ffff1991909116179055600381015481546004808401805460405163a9059cbb60e01b81529387166001600160a01b0316928401929092526024830191909152909550939081908690604490829060009088165af19485156106a657604087927fb0a07f1a24defb90c26c0b6bce3c0129524c6ee69967cd7b8c45dbefdb8dd265927f6244ed823ca6be0f11bc890c3fafcf3c29cb23420c14243642e930b5e07e6d0a98610a8b575b50815190600282523390820152a254915460408051929093166001600160a01b031682526020820152908190810161047f565b610aa190823d841161069f5761068f81836113dc565b5089610a58565b60405162461bcd60e51b815260048101849052600b60248201526a2737ba1030b93134ba32b960a91b6044820152606490fd5b346100bf5760e03660031901126100bf576004356001600160a01b03811681036100bf576024356001600160a01b03811681036100bf576044356001600160a01b03811681036100bf5760a43567ffffffffffffffff81116100bf57610b45903690600401611458565b91909260c43567ffffffffffffffff81116100bf57610b68903690600401611458565b9590946001600160a01b03821615611191576001600160a01b0383161561115d576064351561112a574260843511156110ee576040516323b872dd60e01b815233600482015230602482015260648035604483015260209082908160006001600160a01b038a165af180156106a6576110cf575b506002549560001987146110b957610c5a906001880160025560405198610c028a6113bf565b338a526001600160a01b0385811660208c015286811660408c0152871660608b015260643560808b015260843560a08b0152600060c08b0181905260e08b0152610c4d36898661149e565b6101008b0152369161149e565b61012088015260405180602081011067ffffffffffffffff60208301111761051a57602081016040526000815261014088015285600052600160205260406000209660018060a01b038151166001600160601b0360a01b8954161788556001880160018060a01b036020830151166001600160601b0360a01b8254161790556002880160018060a01b036040830151166001600160601b0360a01b8254161790556003880160018060a01b036060830151166001600160601b0360a01b8254161790556080810151600489015560a081015160058901556006880160c0820151600481101561031f57815460e0840151600381101561031f5761ff0060ff9160081b1692169061ffff19161717905561010081015180519067ffffffffffffffff821161051a578190610d9d828c6007610d96818301546112ef565b91016114e5565b602090601f83116001146110475760009261103c575b50508160011b916000199060031b1c19161760078901555b61012081015180519067ffffffffffffffff821161051a57610dfd82610df460088d01546112ef565b60088d016114e5565b602090601f8311600114610fc85761014093929160009183610fbd575b50508160011b916000199060031b1c19161760088a01555b01519384519767ffffffffffffffff891161051a57888896610e6660209b610e5d60098601546112ef565b600986016114e5565b8a90601f8311600114610f1f5782610f099695937fe326b4e750bcf00691f25b347e0118a650e3b2f91a480e7a3c431d20696e0ba99a9b9593600993600092610f14575b50508160011b916000199060031b1c1916179101555b604080513381526001600160a01b039687168c820152968616908701529093166060850152606435608085015260843560a085015260e060c08501819052849390840191611539565b0390a2604051908152f35b015190508e80610eaa565b60098493929a9594016000528b6000209060005b601f1984168110610fa35750826009927fe326b4e750bcf00691f25b347e0118a650e3b2f91a480e7a3c431d20696e0ba99b9c600193610f099a99989796601f19811610610f8a575b505050811b01910155610ec0565b015160001960f88460031b161c191690558e8080610f7c565b818c015183559a8d019a8c9a506001909201918d01610f33565b015190508b80610e1a565b9060088b0160005260206000209160005b601f198516811061102457509183916001936101409695601f1981161061100b575b505050811b0160088a0155610e32565b015160001960f88460031b161c191690558b8080610ffb565b91926020600181928685015181550194019201610fd9565b015190508a80610db3565b925060078b016000526020600020906000935b601f198416851061109e576001945083601f19811610611085575b505050811b016007890155610dcb565b015160001960f88460031b161c191690558a8080611075565b8181015183556020948501946001909301929091019061105a565b634e487b7160e01b600052601160045260246000fd5b6110e79060203d60201161069f5761068f81836113dc565b5087610bdc565b60405162461bcd60e51b815260206004820152601460248201527314995b19585cd9481d1a5b59481a5b881c185cdd60621b6044820152606490fd5b60405162461bcd60e51b815260206004820152600b60248201526a16995c9bc8185b5bdd5b9d60aa1b6044820152606490fd5b60405162461bcd60e51b815260206004820152600c60248201526b2d32b9379030b93134ba32b960a11b6044820152606490fd5b60405162461bcd60e51b815260206004820152601060248201526f5a65726f2062656e656669636961727960801b6044820152606490fd5b346100bf5760203660031901126100bf576020906004356000526001825261031b60406000206112e060086112d160018060a01b03956112bf858881541698806001830154169080600284015416906003840154166004840154916005850154936112478861124081600760068b01549a01611329565b03896113dc565b6112628c61125b604051809d819301611329565b038b6113dc565b61127f60096112786040519e8f92839101611329565b038d6113dc565b6040519e8f9e8f908152015260408d015260608c015260808b015260a08a01526112af60c08a0160ff83166113fe565b60ff60e08a019160081c1661140b565b61016080610100890152870190611418565b90858203610120870152611418565b90838203610140850152611418565b90600182811c9216801561131f575b602083101461130957565b634e487b7160e01b600052602260045260246000fd5b91607f16916112fe565b906000929180549161133a836112ef565b91828252600193848116908160001461139c575060011461135c575b50505050565b90919394506000526020928360002092846000945b838610611388575050505001019038808080611356565b805485870183015294019385908201611371565b9294505050602093945060ff191683830152151560051b01019038808080611356565b610160810190811067ffffffffffffffff82111761051a57604052565b90601f8019910116810190811067ffffffffffffffff82111761051a57604052565b90600482101561031f5752565b90600382101561031f5752565b919082519283825260005b848110611444575050826000602080949584010152601f8019910116010190565b602081830181015184830182015201611423565b9181601f840112156100bf5782359167ffffffffffffffff83116100bf57602083818601950101116100bf57565b908160209103126100bf575180151581036100bf5790565b92919267ffffffffffffffff821161051a57604051916114c8601f8201601f1916602001846113dc565b8294818452818301116100bf578281602093846000960137010152565b90601f81116114f357505050565b600091825260208220906020601f850160051c8301941061152f575b601f0160051c01915b82811061152457505050565b818155600101611518565b909250829061150f565b908060209392818452848401376000828201840152601f01601f1916010190565b1561156157565b60405162461bcd60e51b815260206004820152600c60248201526b57726f6e672073746174757360a01b6044820152606490fdfea26469706673582212206d5f0c6e8b45a0259df4e84251bfd61055272bef8d92bd7326601354e3bdf89664736f6c63430008140033","linkReferences":{}},"methodIdentifiers":{"autoRelease(uint256)":"459b860e","createEscrow(address,address,address,uint256,uint256,string,bytes)":"137b5266","escrows(uint256)":"012f52ee","getEscrow(uint256)":"7d19e596","isExpired(uint256)":"d9548e53","nextId()":"61b8ce8c","owner()":"8da5cb5b","raiseDispute(uint256,string)":"5aef573c","release(uint256)":"37bdc99b","resolveDispute(uint256,bool)":"34b25ee2"},"id":16}