{"abi":[{"type":"function","name":"autoRelease","inputs":[{"name":"id","type":"uint256","internalType":"uint256"}],"outputs":[],"stateMutability":"nonpayable"},{"type":"function","name":"createEscrow","inputs":[{"name":"beneficiary","type":"address","internalType":"address"},{"name":"arbiter","type":"address","internalType":"address"},{"name":"token","type":"address","internalType":"address"},{"name":"amount","type":"uint256","internalType":"uint256"},{"name":"releaseTime","type":"uint256","internalType":"uint256"},{"name":"conditionType","type":"string","internalType":"string"},{"name":"conditionData","type":"bytes","internalType":"bytes"}],"outputs":[{"name":"id","type":"uint256","internalType":"uint256"}],"stateMutability":"nonpayable"},{"type":"function","name":"escrows","inputs":[{"name":"","type":"uint256","internalType":"uint256"}],"outputs":[{"name":"depositor","type":"address","internalType":"address"},{"name":"beneficiary","type":"address","internalType":"address"},{"name":"arbiter","type":"address","internalType":"address"},{"name":"token","type":"address","internalType":"address"},{"name":"amount","type":"uint256","internalType":"uint256"},{"name":"releaseTime","type":"uint256","internalType":"uint256"},{"name":"status","type":"uint8","internalType":"enum ConditionalEscrow.Status"},{"name":"resolution","type":"uint8","internalType":"enum ConditionalEscrow.Resolution"},{"name":"conditionType","type":"string","internalType":"string"},{"name":"conditionData","type":"bytes","internalType":"bytes"},{"name":"disputeReason","type":"string","internalType":"string"}],"stateMutability":"view"},{"type":"function","name":"getEscrow","inputs":[{"name":"id","type":"uint256","internalType":"uint256"}],"outputs":[{"name":"","type":"tuple","internalType":"struct ConditionalEscrow.EscrowData","components":[{"name":"depositor","type":"address","internalType":"address"},{"name":"beneficiary","type":"address","internalType":"address"},{"name":"arbiter","type":"address","internalType":"address"},{"name":"token","type":"address","internalType":"address"},{"name":"amount","type":"uint256","internalType":"uint256"},{"name":"releaseTime","type":"uint256","internalType":"uint256"},{"name":"status","type":"uint8","internalType":"enum ConditionalEscrow.Status"},{"name":"resolution","type":"uint8","internalType":"enum ConditionalEscrow.Resolution"},{"name":"conditionType","type":"string","internalType":"string"},{"name":"conditionData","type":"bytes","internalType":"bytes"},{"name":"disputeReason","type":"string","internalType":"string"}]}],"stateMutability":"view"},{"type":"function","name":"isExpired","inputs":[{"name":"id","type":"uint256","internalType":"uint256"}],"outputs":[{"name":"","type":"bool","internalType":"bool"}],"stateMutability":"view"},{"type":"function","name":"nextId","inputs":[],"outputs":[{"name":"","type":"uint256","internalType":"uint256"}],"stateMutability":"view"},{"type":"function","name":"raiseDispute","inputs":[{"name":"id","type":"uint256","internalType":"uint256"},{"name":"reason","type":"string","internalType":"string"}],"outputs":[],"stateMutability":"nonpayable"},{"type":"function","name":"release","inputs":[{"name":"id","type":"uint256","internalType":"uint256"}],"outputs":[],"stateMutability":"nonpayable"},{"type":"function","name":"resolveDispute","inputs":[{"name":"id","type":"uint256","internalType":"uint256"},{"name":"toBeneficiary","type":"bool","internalType":"bool"}],"outputs":[],"stateMutability":"nonpayable"},{"type":"event","name":"DisputeRaised","inputs":[{"name":"id","type":"uint256","indexed":true,"internalType":"uint256"},{"name":"by","type":"address","indexed":false,"internalType":"address"},{"name":"reason","type":"string","indexed":false,"internalType":"string"}],"anonymous":false},{"type":"event","name":"EscrowCreated","inputs":[{"name":"id","type":"uint256","indexed":true,"internalType":"uint256"},{"name":"depositor","type":"address","indexed":false,"internalType":"address"},{"name":"beneficiary","type":"address","indexed":false,"internalType":"address"},{"name":"arbiter","type":"address","indexed":false,"internalType":"address"},{"name":"token","type":"address","indexed":false,"internalType":"address"},{"name":"amount","type":"uint256","indexed":false,"internalType":"uint256"},{"name":"releaseTime","type":"uint256","indexed":false,"internalType":"uint256"},{"name":"conditionType","type":"string","indexed":false,"internalType":"string"}],"anonymous":false},{"type":"event","name":"EscrowReleased","inputs":[{"name":"id","type":"uint256","indexed":true,"internalType":"uint256"},{"name":"to","type":"address","indexed":false,"internalType":"address"},{"name":"amount","type":"uint256","indexed":false,"internalType":"uint256"}],"anonymous":false},{"type":"event","name":"EscrowResolved","inputs":[{"name":"id","type":"uint256","indexed":true,"internalType":"uint256"},{"name":"resolution","type":"uint8","indexed":false,"internalType":"enum ConditionalEscrow.Resolution"},{"name":"arbiter","type":"address","indexed":false,"internalType":"address"}],"anonymous":false}],"bytecode":{"object":"0x6080806040523461001657611597908161001c8239f35b600080fdfe608080604052600436101561001357600080fd5b60003560e01c908163012f52ee1461119557508063137b526614610aa757806334b25ee2146107e457806337bdc99b146106ba578063459b860e146105425780635aef573c1461031f57806361b8ce8c146103015780637d19e596146100b95763d9548e531461008257600080fd5b346100b45760203660031901126100b45760043560005260006020526020600560406000200154421015604051908152f35b600080fd5b346100b45760203660031901126100b45760606101406040516100db8161138b565b60008152600060208201526000604082015260008382015260006080820152600060a0820152600060c0820152600060e0820152826101008201528261012082015201526004356000526000602052604060002060405161013b8161138b565b81546001600160a01b03908116825260018301548116602083015260028301548116604083015260038301541660608201526004808301546080830152600583015460a08301526006830154929060ff8416908110156102eb5760c0830152600360ff8460081c1610156102eb5761020960099160ff6102e79560081c1660e08501526040516101d9816101d281600786016112f5565b03826113a8565b6101008501526040516101f3816101d281600886016112f5565b6101208501526101d260405180948193016112f5565b6101408201526040519182916020835260018060a01b03815116602084015260018060a01b03602082015116604084015260018060a01b03604082015116606084015260018060a01b036060820151166080840152608081015160a084015260a081015160c084015261028460c082015160e08501906113ca565b61029760e08201516101008501906113d7565b6101008101516102b661016091826101208701526101808601906113e4565b906101406102d661012085015193601f19948589830301848a01526113e4565b9301519185840301908501526113e4565b0390f35b634e487b7160e01b600052602160045260246000fd5b346100b45760003660031901126100b4576020600154604051908152f35b346100b45760403660031901126100b45760043567ffffffffffffffff6024358181116100b457610354903690600401611424565b8360005260209260008452604060002060018060a01b03808254163314918215610531575b5050156104fe57846000526000845260ff6006604060002001541660048110156102eb576103a79015611526565b84600052600084526040600020600960068201916001928360ff19825416179055019183116104e8576103e4836103de84546112bb565b846114b1565b6000601f841160011461045d579261044d928180604097947f1b84372106d77c6daea0dda35bbc0229d10a83f58ec8990928849251936823419997600093610452575b501b906000198460031b1c19161790555b84519485943386528501526040840191611505565b0390a2005b86013592508b610427565b601f1984169083600052866000209160005b8181106104d3575092859261044d95927f1b84372106d77c6daea0dda35bbc0229d10a83f58ec899092884925193682341999760409996106104b9575b505082811b019055610438565b850135600019600386901b60f8161c1916905589806104ac565b8783013584559284019291880191880161046f565b634e487b7160e01b600052604160045260246000fd5b60405162461bcd60e51b815260048101859052600b60248201526a4e6f74206120706172747960a81b6044820152606490fd5b600191925001541633148680610379565b346100b4576020806003193601126100b45760043590816000526000815260ff6006604060002001541660048110156102eb5761057f9015611526565b81600052600081526040600020600581015442106106825760068101805460ff1916600217905560038101546001820180546004938401805460405163a9059cbb60e01b81526001600160a01b039384169681019690965260248601529394909281908690851681600081604481015b03925af1948515610676577f6244ed823ca6be0f11bc890c3fafcf3c29cb23420c14243642e930b5e07e6d0a95610648575b505054915460408051929093166001600160a01b031682526020820152908190810161044d565b8161066792903d1061066f575b61065f81836113a8565b810190611452565b508580610621565b503d610655565b6040513d6000823e3d90fd5b60405162461bcd60e51b815260048101839052601060248201526f151a5b59481b9bdd08195e1c1a5c995960821b6044820152606490fd5b346100b4576020806003193601126100b45760043590816000526000815260ff6006604060002001541660048110156102eb576106f79015611526565b60008281528082526040902080546001600160a01b0391908216331480156107d5575b600582015442101581156107cd575b501561079357600681018054600260ff1990911617905560038101546001820180546004938401805460405163a9059cbb60e01b81529287166001600160a01b031695830195909552602482019490945294929392909181908690851681600081604481016105ef565b60405162461bcd60e51b815260048101849052601260248201527110d85b9b9bdd081c995b19585cd9481e595d60721b6044820152606490fd5b905085610729565b5081600182015416331461071a565b346100b45760403660031901126100b45760043560243580151581036100b457600082815260208181526040909120600201546001600160a01b039081163303610a7457836000526000825260ff6006604060002001541660048110156102eb5760016108519114611526565b60008481528083526040902060068101805460ff1981166003178255941561097557805461010061ff001990911617905560038101546001820180546004938401805460405163a9059cbb60e01b81529287166001600160a01b0316958301959095526024820194909452955091939081908690604490829060009088165af194851561067657604087927fb0a07f1a24defb90c26c0b6bce3c0129524c6ee69967cd7b8c45dbefdb8dd265927f6244ed823ca6be0f11bc890c3fafcf3c29cb23420c14243642e930b5e07e6d0a98610958575b50815190600182523390820152a254915460408051929093166001600160a01b031682526020820152908190810161044d565b61096e90823d841161066f5761065f81836113a8565b5089610925565b6102036109cc9561ffff19161790558160038201541692808383541660048401958654916000604051809a8195829463a9059cbb60e01b84526004840160209093929193604081019460018060a01b031681520152565b03925af194851561067657604087927fb0a07f1a24defb90c26c0b6bce3c0129524c6ee69967cd7b8c45dbefdb8dd265927f6244ed823ca6be0f11bc890c3fafcf3c29cb23420c14243642e930b5e07e6d0a98610a57575b50815190600282523390820152a254915460408051929093166001600160a01b031682526020820152908190810161044d565b610a6d90823d841161066f5761065f81836113a8565b5089610a24565b60405162461bcd60e51b815260048101839052600b60248201526a2737ba1030b93134ba32b960a91b6044820152606490fd5b346100b45760e03660031901126100b4576004356001600160a01b03811681036100b4576024356001600160a01b03811681036100b4576044356001600160a01b03811681036100b45760a43567ffffffffffffffff81116100b457610b11903690600401611424565b91909260c43567ffffffffffffffff81116100b457610b34903690600401611424565b9590946001600160a01b0382161561115d576001600160a01b0383161561112957606435156110f6574260843511156110ba576040516323b872dd60e01b815233600482015230602482015260648035604483015260209082908160006001600160a01b038a165af180156106765761109b575b5060015495600019871461108557610c26906001880160015560405198610bce8a61138b565b338a526001600160a01b0385811660208c015286811660408c0152871660608b015260643560808b015260843560a08b0152600060c08b0181905260e08b0152610c1936898661146a565b6101008b0152369161146a565b61012088015260405180602081011067ffffffffffffffff6020830111176104e857602081016040526000815261014088015285600052600060205260406000209660018060a01b038151166001600160601b0360a01b8954161788556001880160018060a01b036020830151166001600160601b0360a01b8254161790556002880160018060a01b036040830151166001600160601b0360a01b8254161790556003880160018060a01b036060830151166001600160601b0360a01b8254161790556080810151600489015560a081015160058901556006880160c082015160048110156102eb57815460e084015160038110156102eb5761ff0060ff9160081b1692169061ffff19161717905561010081015180519067ffffffffffffffff82116104e8578190610d69828c6007610d62818301546112bb565b91016114b1565b602090601f831160011461101357600092611008575b50508160011b916000199060031b1c19161760078901555b61012081015180519067ffffffffffffffff82116104e857610dc982610dc060088d01546112bb565b60088d016114b1565b602090601f8311600114610f945761014093929160009183610f89575b50508160011b916000199060031b1c19161760088a01555b01519384519767ffffffffffffffff89116104e857888896610e3260209b610e2960098601546112bb565b600986016114b1565b8a90601f8311600114610eeb5782610ed59695937fe326b4e750bcf00691f25b347e0118a650e3b2f91a480e7a3c431d20696e0ba99a9b9593600993600092610ee0575b50508160011b916000199060031b1c1916179101555b604080513381526001600160a01b039687168c820152968616908701529093166060850152606435608085015260843560a085015260e060c08501819052849390840191611505565b0390a2604051908152f35b015190508e80610e76565b60098493929a9594016000528b6000209060005b601f1984168110610f6f5750826009927fe326b4e750bcf00691f25b347e0118a650e3b2f91a480e7a3c431d20696e0ba99b9c600193610ed59a99989796601f19811610610f56575b505050811b01910155610e8c565b015160001960f88460031b161c191690558e8080610f48565b818c015183559a8d019a8c9a506001909201918d01610eff565b015190508b80610de6565b9060088b0160005260206000209160005b601f1985168110610ff057509183916001936101409695601f19811610610fd7575b505050811b0160088a0155610dfe565b015160001960f88460031b161c191690558b8080610fc7565b91926020600181928685015181550194019201610fa5565b015190508a80610d7f565b925060078b016000526020600020906000935b601f198416851061106a576001945083601f19811610611051575b505050811b016007890155610d97565b015160001960f88460031b161c191690558a8080611041565b81810151835560209485019460019093019290910190611026565b634e487b7160e01b600052601160045260246000fd5b6110b39060203d60201161066f5761065f81836113a8565b5087610ba8565b60405162461bcd60e51b815260206004820152601460248201527314995b19585cd9481d1a5b59481a5b881c185cdd60621b6044820152606490fd5b60405162461bcd60e51b815260206004820152600b60248201526a16995c9bc8185b5bdd5b9d60aa1b6044820152606490fd5b60405162461bcd60e51b815260206004820152600c60248201526b2d32b9379030b93134ba32b960a11b6044820152606490fd5b60405162461bcd60e51b815260206004820152601060248201526f5a65726f2062656e656669636961727960801b6044820152606490fd5b346100b45760203660031901126100b457602090600435600052600082526102e760406000206112ac600861129d60018060a01b039561128b858881541698806001830154169080600284015416906003840154166004840154916005850154936112138861120c81600760068b01549a016112f5565b03896113a8565b61122e8c611227604051809d8193016112f5565b038b6113a8565b61124b60096112446040519e8f928391016112f5565b038d6113a8565b6040519e8f9e8f908152015260408d015260608c015260808b015260a08a015261127b60c08a0160ff83166113ca565b60ff60e08a019160081c166113d7565b610160806101008901528701906113e4565b908582036101208701526113e4565b908382036101408501526113e4565b90600182811c921680156112eb575b60208310146112d557565b634e487b7160e01b600052602260045260246000fd5b91607f16916112ca565b9060009291805491611306836112bb565b9182825260019384811690816000146113685750600114611328575b50505050565b90919394506000526020928360002092846000945b838610611354575050505001019038808080611322565b80548587018301529401938590820161133d565b9294505050602093945060ff191683830152151560051b01019038808080611322565b610160810190811067ffffffffffffffff8211176104e857604052565b90601f8019910116810190811067ffffffffffffffff8211176104e857604052565b9060048210156102eb5752565b9060038210156102eb5752565b919082519283825260005b848110611410575050826000602080949584010152601f8019910116010190565b6020818301810151848301820152016113ef565b9181601f840112156100b45782359167ffffffffffffffff83116100b457602083818601950101116100b457565b908160209103126100b4575180151581036100b45790565b92919267ffffffffffffffff82116104e85760405191611494601f8201601f1916602001846113a8565b8294818452818301116100b4578281602093846000960137010152565b90601f81116114bf57505050565b600091825260208220906020601f850160051c830194106114fb575b601f0160051c01915b8281106114f057505050565b8181556001016114e4565b90925082906114db565b908060209392818452848401376000828201840152601f01601f1916010190565b1561152d57565b60405162461bcd60e51b815260206004820152600c60248201526b57726f6e672073746174757360a01b6044820152606490fdfea2646970667358221220a63f4c5175b7307451289df91cbafea76fbb0d9374964bd508ccead082a70bca64736f6c63430008140033","linkReferences":{}},"methodIdentifiers":{"autoRelease(uint256)":"459b860e","createEscrow(address,address,address,uint256,uint256,string,bytes)":"137b5266","escrows(uint256)":"012f52ee","getEscrow(uint256)":"7d19e596","isExpired(uint256)":"d9548e53","nextId()":"61b8ce8c","raiseDispute(uint256,string)":"5aef573c","release(uint256)":"37bdc99b","resolveDispute(uint256,bool)":"34b25ee2"},"id":16}