{"abi":[{"type":"function","name":"depositForBurnWithHook","inputs":[{"name":"amount","type":"uint256","internalType":"uint256"},{"name":"destinationDomain","type":"uint32","internalType":"uint32"},{"name":"mintRecipient","type":"bytes32","internalType":"bytes32"},{"name":"burnToken","type":"address","internalType":"address"},{"name":"destinationCaller","type":"bytes32","internalType":"bytes32"},{"name":"","type":"uint256","internalType":"uint256"},{"name":"","type":"uint32","internalType":"uint32"},{"name":"hookData","type":"bytes","internalType":"bytes"}],"outputs":[{"name":"nonce","type":"uint64","internalType":"uint64"}],"stateMutability":"nonpayable"},{"type":"function","name":"getMessageHash","inputs":[{"name":"nonce","type":"uint64","internalType":"uint64"}],"outputs":[{"name":"","type":"bytes32","internalType":"bytes32"}],"stateMutability":"view"},{"type":"function","name":"nextNonce","inputs":[],"outputs":[{"name":"","type":"uint64","internalType":"uint64"}],"stateMutability":"view"},{"type":"event","name":"DepositForBurn","inputs":[{"name":"nonce","type":"uint64","indexed":true,"internalType":"uint64"},{"name":"burnToken","type":"address","indexed":true,"internalType":"address"},{"name":"amount","type":"uint256","indexed":false,"internalType":"uint256"},{"name":"depositor","type":"address","indexed":true,"internalType":"address"},{"name":"mintRecipient","type":"bytes32","indexed":false,"internalType":"bytes32"},{"name":"destinationDomain","type":"uint32","indexed":false,"internalType":"uint32"},{"name":"destinationTokenMessenger","type":"bytes32","indexed":false,"internalType":"bytes32"},{"name":"destinationCaller","type":"bytes32","indexed":false,"internalType":"bytes32"}],"anonymous":false},{"type":"event","name":"MessageSent","inputs":[{"name":"message","type":"bytes","indexed":false,"internalType":"bytes"}],"anonymous":false}],"bytecode":{"object":"0x608080604052346100165761043a908161001c8239f35b600080fdfe608060408181526004918236101561001657600080fd5b600092833560e01c918263779b432d146100e057508163c76fa3791461006f575063d69c3d301461004657600080fd5b3461006b578160031936011261006b5767ffffffffffffffff60209254169051908152f35b5080fd5b8284346100dd5760203660031901126100dd5782359067ffffffffffffffff9283831680930361006b578051916020830193845246828401528183526060830194838610908611176100ca5750602094508390525190208152f35b634e487b7160e01b815260418652602490fd5b80fd5b848285346103c85761010092836003193601126100dd57823560249586359563ffffffff8088168098036103c457604435936064356001600160a01b03811692908390036103c05760c435908116036103bc5760e4359467ffffffffffffffff998a87116103b857366023880112156103b857868a0135958b871161032f57368d888a01011161032f57831561038a5750600781146103485788516323b872dd60e01b8152338b820152308d8201526044810184905260209b908c816064818d8a5af1801561033e57610303575b508854908082169b818d146102f157509361028697938c9997938e9f9793601f9f9760018d01169067ffffffffffffffff1916178c558c81815191858352848a8401528201528c60608201526084356080820152848c7f2fa9ca894982930190727e75500a97d8dc500233a5065e0f3126c48fbe0343c060a03394a48c519a8b978801528c8701526060860152608085015260a08401528060c084015281610120948186860152610140960186850137878583850101524660e084015242908301528919998a910116810103908101845201826103cc565b825191868352815191828885015287825b8481106102de575086867f8c5261668696ce22758910d05bab8f186d6eb247ceac2af2e82c7dc17669b0368782818d601f8b8b85828601015201168101030190a151908152f35b8281018201518682018801528101610297565b634e487b7160e01b8b52601181528e8bfd5b8c81813d8311610337575b61031881836103cc565b8101031261033357518015150361032f578d6101ae565b8880fd5b8980fd5b503d61030e565b8b513d8c823e3d90fd5b885162461bcd60e51b81526020818c0152601b818e01527f43616e6e6f74206275726e20746f20736f7572636520636861696e00000000006044820152606490fd5b62461bcd60e51b815260208b820152600b8d8201526a16995c9bc8185b5bdd5b9d60aa1b6044820152606490fd5b8780fd5b8580fd5b8680fd5b8480fd5b8280fd5b90601f8019910116810190811067ffffffffffffffff8211176103ee57604052565b634e487b7160e01b600052604160045260246000fdfea264697066735822122087b76f49e2bf2578eb4db7a9b6e8026eb6905811e1954e1b1663c959b457ae5a64736f6c63430008140033","linkReferences":{}},"methodIdentifiers":{"depositForBurnWithHook(uint256,uint32,bytes32,address,bytes32,uint256,uint32,bytes)":"779b432d","getMessageHash(uint64)":"c76fa379","nextNonce()":"d69c3d30"},"id":19}