{"abi":[{"type":"function","name":"claim","inputs":[{"name":"id","type":"uint256","internalType":"uint256"}],"outputs":[],"stateMutability":"nonpayable"},{"type":"function","name":"claimableAmount","inputs":[{"name":"id","type":"uint256","internalType":"uint256"}],"outputs":[{"name":"","type":"uint256","internalType":"uint256"}],"stateMutability":"view"},{"type":"function","name":"createSchedule","inputs":[{"name":"beneficiary","type":"address","internalType":"address"},{"name":"token","type":"address","internalType":"address"},{"name":"totalAmount","type":"uint256","internalType":"uint256"},{"name":"cliffDuration","type":"uint256","internalType":"uint256"},{"name":"vestingDuration","type":"uint256","internalType":"uint256"},{"name":"startTime","type":"uint256","internalType":"uint256"}],"outputs":[{"name":"id","type":"uint256","internalType":"uint256"}],"stateMutability":"nonpayable"},{"type":"function","name":"getSchedule","inputs":[{"name":"id","type":"uint256","internalType":"uint256"}],"outputs":[{"name":"","type":"tuple","internalType":"struct PayrollVesting.Schedule","components":[{"name":"employer","type":"address","internalType":"address"},{"name":"beneficiary","type":"address","internalType":"address"},{"name":"token","type":"address","internalType":"address"},{"name":"totalAmount","type":"uint256","internalType":"uint256"},{"name":"cliffDuration","type":"uint256","internalType":"uint256"},{"name":"vestingDuration","type":"uint256","internalType":"uint256"},{"name":"startTime","type":"uint256","internalType":"uint256"},{"name":"amountClaimed","type":"uint256","internalType":"uint256"},{"name":"revoked","type":"bool","internalType":"bool"}]}],"stateMutability":"view"},{"type":"function","name":"nextId","inputs":[],"outputs":[{"name":"","type":"uint256","internalType":"uint256"}],"stateMutability":"view"},{"type":"function","name":"revoke","inputs":[{"name":"id","type":"uint256","internalType":"uint256"}],"outputs":[],"stateMutability":"nonpayable"},{"type":"function","name":"schedules","inputs":[{"name":"","type":"uint256","internalType":"uint256"}],"outputs":[{"name":"employer","type":"address","internalType":"address"},{"name":"beneficiary","type":"address","internalType":"address"},{"name":"token","type":"address","internalType":"address"},{"name":"totalAmount","type":"uint256","internalType":"uint256"},{"name":"cliffDuration","type":"uint256","internalType":"uint256"},{"name":"vestingDuration","type":"uint256","internalType":"uint256"},{"name":"startTime","type":"uint256","internalType":"uint256"},{"name":"amountClaimed","type":"uint256","internalType":"uint256"},{"name":"revoked","type":"bool","internalType":"bool"}],"stateMutability":"view"},{"type":"function","name":"vestedAmount","inputs":[{"name":"id","type":"uint256","internalType":"uint256"}],"outputs":[{"name":"","type":"uint256","internalType":"uint256"}],"stateMutability":"view"},{"type":"event","name":"ScheduleCreated","inputs":[{"name":"id","type":"uint256","indexed":true,"internalType":"uint256"},{"name":"employer","type":"address","indexed":false,"internalType":"address"},{"name":"beneficiary","type":"address","indexed":false,"internalType":"address"},{"name":"token","type":"address","indexed":false,"internalType":"address"},{"name":"totalAmount","type":"uint256","indexed":false,"internalType":"uint256"},{"name":"cliffDuration","type":"uint256","indexed":false,"internalType":"uint256"},{"name":"vestingDuration","type":"uint256","indexed":false,"internalType":"uint256"},{"name":"startTime","type":"uint256","indexed":false,"internalType":"uint256"}],"anonymous":false},{"type":"event","name":"ScheduleRevoked","inputs":[{"name":"id","type":"uint256","indexed":true,"internalType":"uint256"},{"name":"employer","type":"address","indexed":false,"internalType":"address"},{"name":"amountReturned","type":"uint256","indexed":false,"internalType":"uint256"}],"anonymous":false},{"type":"event","name":"TokensClaimed","inputs":[{"name":"id","type":"uint256","indexed":true,"internalType":"uint256"},{"name":"beneficiary","type":"address","indexed":false,"internalType":"address"},{"name":"amount","type":"uint256","indexed":false,"internalType":"uint256"},{"name":"totalClaimed","type":"uint256","indexed":false,"internalType":"uint256"}],"anonymous":false}],"bytecode":{"object":"0x6080806040523461001657610b5d908161001c8239f35b600080fdfe6080604052600436101561001257600080fd5b60003560e01c80631bfce853146109a057806320c5429b146107e9578063379607f5146105de57806361b8ce8c146105c05780636cfe0ad11461059a578063bdc6d9ab14610505578063be8f4812146101ae5763c5ca93a71461007457600080fd5b346101a95760203660031901126101a957610120604051610094816109be565b6000815260006020820152600060408201526000606082015260006080820152600060a0820152600060c0820152600060e082015260006101008092015260043560005260006020526040600020906040516100ef816109be565b8060018060a01b0393848154169485835280600183015416906020840191825280600284015416906040850191825260038401549060608601918252600485015492608087019384528160058701549560a089019687528a60ff600860068b01549a60c08d019b8c5260e060078201549d019c8d520154169a019915158a526040519b8c52511660208b0152511660408901525160608801525160808701525160a08601525160c08501525160e084015251151590820152f35b600080fd5b346101a95760c03660031901126101a9576004356001600160a01b03811681036101a957602480356001600160a01b03811681036101a9576001600160a01b038316156104ce576044351561049c57608435156104605760843560643511610424576040516323b872dd60e01b81523360048201523083820152604480359082015260208160648160006001600160a01b0387165af18015610418576103e9575b506001549160001983146103d557507f21677b01dd5180f95b11a63ae800058198b233383c17416c28b62f4b4d120e4460e0602094849360018501600155604051610299816109be565b33815260018060a01b0383168882015260018060a01b03821660408201526044356060820152606435608082015260843560a082015260a43560c0820152600084820152600061010082015285600052600088526101006008604060002060018060a01b038451166bffffffffffffffffffffffff60a01b90818354161782556001820160018060a01b038d8701511682825416179055600282019060018060a01b0360408701511690825416179055606084015160038201556080840151600482015560a0840151600582015560c0840151600682015586840151600782015501910151151560ff801983541691161790556040519133835260018060a01b03168783015260018060a01b031660408201526044356060820152606435608082015260843560a082015260a43560c0820152a2604051908152f35b634e487b7160e01b60009081526011600452fd5b61040a9060203d602011610411575b61040281836109f1565b810190610a13565b508361024f565b503d6103f8565b6040513d6000823e3d90fd5b60405162461bcd60e51b81526020600482015260158184015274436c69666620657863656564732076657374696e6760581b6044820152606490fd5b60405162461bcd60e51b815260206004820152601581840152742d32b937903b32b9ba34b73390323ab930ba34b7b760591b6044820152606490fd5b60405162461bcd60e51b815260206004820152600b818401526a16995c9bc8185b5bdd5b9d60aa1b6044820152606490fd5b60405162461bcd60e51b8152602060048201526010818401526f5a65726f2062656e656669636961727960801b6044820152606490fd5b346101a95760203660031901126101a9576004356000526000602052610120604060002060018060a01b03808254169181600182015416916002820154166003820154600483015460058401549160068501549360ff600860078801549701541696604051988952602089015260408801526060870152608086015260a085015260c084015260e08301521515610100820152f35b346101a95760203660031901126101a95760206105b8600435610aed565b604051908152f35b346101a95760003660031901126101a9576020600154604051908152f35b346101a9576020806003193601126101a95760043590816000526000815260018060a01b03806001604060002001541633036107b257826000526000825260ff6008604060002001541661077a5761063583610aed565b908115610742578360005260008352600760406000200192835483810180911161072c576106ae94558460005260008152808360406000208460018160028401541692015416600060405180998195829463a9059cbb60e01b84526004840160209093929193604081019460018060a01b031681520152565b03925af1928315610418577fa99e56daf7b172944ed4142b79056ff30b8c461557290c222948987fede4389a9460609461070f575b5085600052600082526007604060002093600185015416930154916040519384528301526040820152a2005b61072590833d85116104115761040281836109f1565b50866106e3565b634e487b7160e01b600052601160045260246000fd5b60405162461bcd60e51b815260048101849052601060248201526f4e6f7468696e6720746f20636c61696d60801b6044820152606490fd5b60405162461bcd60e51b815260048101839052601060248201526f14d8da19591d5b19481c995d9bdad95960821b6044820152606490fd5b60405162461bcd60e51b815260048101839052600f60248201526e4e6f742062656e656669636961727960881b6044820152606490fd5b346101a9576020806003193601126101a95760043590816000526000815260018060a01b038060406000205416330361096c578260005260008252604060002090600882019182549260ff841661093557600161085261084888610a38565b6003850154610a2b565b9460ff1916179055826108a2575b5460408051929091166001600160a01b0316825260208201929092527fcfb0e1f97bc375d6b68398d705dac100573940a50fbf4a871c186ad55909cc8c9250a2005b6002810154815460405163a9059cbb60e01b81529084166001600160a01b03166004820152602481018590529490819086908516816000816044810103925af1948515610418577fcfb0e1f97bc375d6b68398d705dac100573940a50fbf4a871c186ad55909cc8c95610917575b5050610860565b8161092d92903d106104115761040281836109f1565b508580610910565b60405162461bcd60e51b815260048101869052600f60248201526e105b1c9958591e481c995d9bdad959608a1b6044820152606490fd5b60405162461bcd60e51b815260048101839052600c60248201526b2737ba1032b6b83637bcb2b960a11b6044820152606490fd5b346101a95760203660031901126101a95760206105b8600435610a38565b610120810190811067ffffffffffffffff8211176109db57604052565b634e487b7160e01b600052604160045260246000fd5b90601f8019910116810190811067ffffffffffffffff8211176109db57604052565b908160209103126101a9575180151581036101a95790565b9190820391821161072c57565b600090815280602052604081209060ff600883015416610ae5576006820154804211600014610ade57610a6b9042610a2b565b905b60048301548210610ad85760058301549283831015610acd5760030154828102928184041490151715610ab9578215610aa557500490565b634e487b7160e01b81526012600452602490fd5b634e487b7160e01b81526011600452602490fd5b600301549392505050565b91505090565b5080610a6d565b506007015490565b610af681610a38565b906000526000602052600760406000200154600091818111600014610b2257610b1f9250610a2b565b90565b50509056fea2646970667358221220ad87001a4dfcc71f1c8d0933fb41865da823bd2331456a96be50725e28b46c5564736f6c63430008140033","linkReferences":{}},"methodIdentifiers":{"claim(uint256)":"379607f5","claimableAmount(uint256)":"6cfe0ad1","createSchedule(address,address,uint256,uint256,uint256,uint256)":"be8f4812","getSchedule(uint256)":"c5ca93a7","nextId()":"61b8ce8c","revoke(uint256)":"20c5429b","schedules(uint256)":"bdc6d9ab","vestedAmount(uint256)":"1bfce853"},"id":19}