{"abi":[{"type":"constructor","inputs":[],"stateMutability":"nonpayable"},{"type":"function","name":"claim","inputs":[{"name":"id","type":"uint256","internalType":"uint256"}],"outputs":[],"stateMutability":"nonpayable"},{"type":"function","name":"claimableAmount","inputs":[{"name":"id","type":"uint256","internalType":"uint256"}],"outputs":[{"name":"","type":"uint256","internalType":"uint256"}],"stateMutability":"view"},{"type":"function","name":"createSchedule","inputs":[{"name":"beneficiary","type":"address","internalType":"address"},{"name":"token","type":"address","internalType":"address"},{"name":"totalAmount","type":"uint256","internalType":"uint256"},{"name":"cliffDuration","type":"uint256","internalType":"uint256"},{"name":"vestingDuration","type":"uint256","internalType":"uint256"},{"name":"startTime","type":"uint256","internalType":"uint256"}],"outputs":[{"name":"id","type":"uint256","internalType":"uint256"}],"stateMutability":"nonpayable"},{"type":"function","name":"getSchedule","inputs":[{"name":"id","type":"uint256","internalType":"uint256"}],"outputs":[{"name":"","type":"tuple","internalType":"struct PayrollVesting.Schedule","components":[{"name":"employer","type":"address","internalType":"address"},{"name":"beneficiary","type":"address","internalType":"address"},{"name":"token","type":"address","internalType":"address"},{"name":"totalAmount","type":"uint256","internalType":"uint256"},{"name":"cliffDuration","type":"uint256","internalType":"uint256"},{"name":"vestingDuration","type":"uint256","internalType":"uint256"},{"name":"startTime","type":"uint256","internalType":"uint256"},{"name":"amountClaimed","type":"uint256","internalType":"uint256"},{"name":"revoked","type":"bool","internalType":"bool"}]}],"stateMutability":"view"},{"type":"function","name":"nextId","inputs":[],"outputs":[{"name":"","type":"uint256","internalType":"uint256"}],"stateMutability":"view"},{"type":"function","name":"owner","inputs":[],"outputs":[{"name":"","type":"address","internalType":"address"}],"stateMutability":"view"},{"type":"function","name":"revoke","inputs":[{"name":"id","type":"uint256","internalType":"uint256"}],"outputs":[],"stateMutability":"nonpayable"},{"type":"function","name":"schedules","inputs":[{"name":"","type":"uint256","internalType":"uint256"}],"outputs":[{"name":"employer","type":"address","internalType":"address"},{"name":"beneficiary","type":"address","internalType":"address"},{"name":"token","type":"address","internalType":"address"},{"name":"totalAmount","type":"uint256","internalType":"uint256"},{"name":"cliffDuration","type":"uint256","internalType":"uint256"},{"name":"vestingDuration","type":"uint256","internalType":"uint256"},{"name":"startTime","type":"uint256","internalType":"uint256"},{"name":"amountClaimed","type":"uint256","internalType":"uint256"},{"name":"revoked","type":"bool","internalType":"bool"}],"stateMutability":"view"},{"type":"function","name":"vestedAmount","inputs":[{"name":"id","type":"uint256","internalType":"uint256"}],"outputs":[{"name":"","type":"uint256","internalType":"uint256"}],"stateMutability":"view"},{"type":"event","name":"ScheduleCreated","inputs":[{"name":"id","type":"uint256","indexed":true,"internalType":"uint256"},{"name":"employer","type":"address","indexed":false,"internalType":"address"},{"name":"beneficiary","type":"address","indexed":false,"internalType":"address"},{"name":"token","type":"address","indexed":false,"internalType":"address"},{"name":"totalAmount","type":"uint256","indexed":false,"internalType":"uint256"},{"name":"cliffDuration","type":"uint256","indexed":false,"internalType":"uint256"},{"name":"vestingDuration","type":"uint256","indexed":false,"internalType":"uint256"},{"name":"startTime","type":"uint256","indexed":false,"internalType":"uint256"}],"anonymous":false},{"type":"event","name":"ScheduleRevoked","inputs":[{"name":"id","type":"uint256","indexed":true,"internalType":"uint256"},{"name":"employer","type":"address","indexed":false,"internalType":"address"},{"name":"amountReturned","type":"uint256","indexed":false,"internalType":"uint256"}],"anonymous":false},{"type":"event","name":"TokensClaimed","inputs":[{"name":"id","type":"uint256","indexed":true,"internalType":"uint256"},{"name":"beneficiary","type":"address","indexed":false,"internalType":"address"},{"name":"amount","type":"uint256","indexed":false,"internalType":"uint256"},{"name":"totalClaimed","type":"uint256","indexed":false,"internalType":"uint256"}],"anonymous":false}],"bytecode":{"object":"0x6080806040523461002857600080546001600160a01b03191633179055610c11908161002e8239f35b600080fdfe6080604052600436101561001257600080fd5b60003560e01c80631bfce85314610a5757806320c5429b14610817578063379607f51461061257806361b8ce8c146105f45780636cfe0ad1146105ce5780638da5cb5b146105a5578063bdc6d9ab14610510578063be8f4812146101b95763c5ca93a71461007f57600080fd5b346101b45760203660031901126101b45761012060405161009f81610a75565b6000815260006020820152600060408201526000606082015260006080820152600060a0820152600060c0820152600060e082015260006101008092015260043560005260016020526040600020906040516100fa81610a75565b8060018060a01b0393848154169485835280600183015416906020840191825280600284015416906040850191825260038401549060608601918252600485015492608087019384528160058701549560a089019687528a60ff600860068b01549a60c08d019b8c5260e060078201549d019c8d520154169a019915158a526040519b8c52511660208b0152511660408901525160608801525160808701525160a08601525160c08501525160e084015251151590820152f35b600080fd5b346101b45760c03660031901126101b4576004356001600160a01b03811681036101b457602480356001600160a01b03811681036101b4576001600160a01b038316156104d957604435156104a7576084351561046b576084356064351161042f576040516323b872dd60e01b81523360048201523083820152604480359082015260208160648160006001600160a01b0387165af18015610423576103f4575b506002549160001983146103e057507f21677b01dd5180f95b11a63ae800058198b233383c17416c28b62f4b4d120e4460e06020948493600185016002556040516102a481610a75565b33815260018060a01b0383168882015260018060a01b03821660408201526044356060820152606435608082015260843560a082015260a43560c0820152600084820152600061010082015285600052600188526101006008604060002060018060a01b038451166bffffffffffffffffffffffff60a01b90818354161782556001820160018060a01b038d8701511682825416179055600282019060018060a01b0360408701511690825416179055606084015160038201556080840151600482015560a0840151600582015560c0840151600682015586840151600782015501910151151560ff801983541691161790556040519133835260018060a01b03168783015260018060a01b031660408201526044356060820152606435608082015260843560a082015260a43560c0820152a2604051908152f35b634e487b7160e01b60009081526011600452fd5b6104159060203d60201161041c575b61040d8183610aa8565b810190610aca565b508361025a565b503d610403565b6040513d6000823e3d90fd5b60405162461bcd60e51b81526020600482015260158184015274436c69666620657863656564732076657374696e6760581b6044820152606490fd5b60405162461bcd60e51b815260206004820152601581840152742d32b937903b32b9ba34b73390323ab930ba34b7b760591b6044820152606490fd5b60405162461bcd60e51b815260206004820152600b818401526a16995c9bc8185b5bdd5b9d60aa1b6044820152606490fd5b60405162461bcd60e51b8152602060048201526010818401526f5a65726f2062656e656669636961727960801b6044820152606490fd5b346101b45760203660031901126101b4576004356000526001602052610120604060002060018060a01b03808254169181600182015416916002820154166003820154600483015460058401549160068501549360ff600860078801549701541696604051988952602089015260408801526060870152608086015260a085015260c084015260e08301521515610100820152f35b346101b45760003660031901126101b4576000546040516001600160a01b039091168152602090f35b346101b45760203660031901126101b45760206105ec600435610ba5565b604051908152f35b346101b45760003660031901126101b4576020600254604051908152f35b346101b4576020806003193601126101b457600435908160005260019081815260018060a01b03918281604060002001541633036107e0578360005280825260ff600860406000200154166107a85761066a84610ba5565b9182156107715784600052818152600760406000200192835481810180911161075b576106e09455856000528282528181604060002087868160028401541692015416600060405180998195829463a9059cbb60e01b84526004840160209093929193604081019460018060a01b031681520152565b03925af18015610423577fa99e56daf7b172944ed4142b79056ff30b8c461557290c222948987fede4389a9560609560079261073e575b508760005284845260406000209485015416930154916040519384528301526040820152a2005b61075490853d871161041c5761040d8183610aa8565b5088610717565b634e487b7160e01b600052601160045260246000fd5b6064906040519062461bcd60e51b82526004820152601060248201526f4e6f7468696e6720746f20636c61696d60801b6044820152fd5b60405162461bcd60e51b815260048101839052601060248201526f14d8da19591d5b19481c995d9bdad95960821b6044820152606490fd5b60405162461bcd60e51b815260048101839052600f60248201526e4e6f742062656e656669636961727960881b6044820152606490fd5b346101b4576020806003193601126101b45760043590816000526001815260018060a01b0380604060002054163303610a23578260005260018252604060002090600882019182549260ff84166109ec5761087186610aef565b60078301610880815483610ae2565b926001610891846003880154610ae2565b9760ff191617905555848161097e575b5050826108eb575b5460408051929091166001600160a01b0316825260208201929092527fcfb0e1f97bc375d6b68398d705dac100573940a50fbf4a871c186ad55909cc8c9250a2005b6002810154815460405163a9059cbb60e01b81529084166001600160a01b03166004820152602481018590529490819086908516816000816044810103925af1948515610423577fcfb0e1f97bc375d6b68398d705dac100573940a50fbf4a871c186ad55909cc8c95610960575b50506108a9565b8161097692903d1061041c5761040d8183610aa8565b508580610959565b6002830154600184015460405163a9059cbb60e01b81529086166001600160a01b03166004820152602481019390935282908516816000816044810103925af18015610423576109cf575b846108a1565b6109e590853d871161041c5761040d8183610aa8565b50856109c9565b60405162461bcd60e51b815260048101869052600f60248201526e105b1c9958591e481c995d9bdad959608a1b6044820152606490fd5b60405162461bcd60e51b815260048101839052600c60248201526b2737ba1032b6b83637bcb2b960a11b6044820152606490fd5b346101b45760203660031901126101b45760206105ec600435610aef565b610120810190811067ffffffffffffffff821117610a9257604052565b634e487b7160e01b600052604160045260246000fd5b90601f8019910116810190811067ffffffffffffffff821117610a9257604052565b908160209103126101b4575180151581036101b45790565b9190820391821161075b57565b60009081526001602052604081209060ff600883015416610b9d576006820154804211600014610b9657610b239042610ae2565b905b60048301548210610b905760058301549283831015610b855760030154828102928184041490151715610b71578215610b5d57500490565b634e487b7160e01b81526012600452602490fd5b634e487b7160e01b81526011600452602490fd5b600301549392505050565b91505090565b5080610b25565b506007015490565b610bae81610aef565b6000918252600160205260408220600701549081811115610bd657610bd39250610ae2565b90565b50509056fea264697066735822122059feb9dd92f59ec158c3641c232d378ab94c0186e2ec2d241dc818a8350c167464736f6c63430008140033","linkReferences":{}},"methodIdentifiers":{"claim(uint256)":"379607f5","claimableAmount(uint256)":"6cfe0ad1","createSchedule(address,address,uint256,uint256,uint256,uint256)":"be8f4812","getSchedule(uint256)":"c5ca93a7","nextId()":"61b8ce8c","owner()":"8da5cb5b","revoke(uint256)":"20c5429b","schedules(uint256)":"bdc6d9ab","vestedAmount(uint256)":"1bfce853"},"id":20}