{"abi":[{"type":"constructor","inputs":[{"name":"_tokenMessengerV2","type":"address","internalType":"address"},{"name":"_usdc","type":"address","internalType":"address"}],"stateMutability":"nonpayable"},{"type":"function","name":"encodeHookData","inputs":[{"name":"conditionType","type":"string","internalType":"string"},{"name":"target","type":"address","internalType":"address"},{"name":"callData","type":"bytes","internalType":"bytes"}],"outputs":[{"name":"","type":"bytes","internalType":"bytes"}],"stateMutability":"pure"},{"type":"function","name":"getDomainId","inputs":[{"name":"chainName","type":"string","internalType":"string"}],"outputs":[{"name":"","type":"uint32","internalType":"uint32"}],"stateMutability":"pure"},{"type":"function","name":"getTransfer","inputs":[{"name":"id","type":"uint256","internalType":"uint256"}],"outputs":[{"name":"","type":"tuple","internalType":"struct CrosschainEscrow.Transfer","components":[{"name":"sender","type":"address","internalType":"address"},{"name":"recipient","type":"address","internalType":"address"},{"name":"destinationDomain","type":"uint32","internalType":"uint32"},{"name":"token","type":"address","internalType":"address"},{"name":"amount","type":"uint256","internalType":"uint256"},{"name":"executed","type":"bool","internalType":"bool"},{"name":"cctpNonce","type":"uint64","internalType":"uint64"},{"name":"hookData","type":"bytes","internalType":"bytes"},{"name":"conditionDescription","type":"string","internalType":"string"}]}],"stateMutability":"view"},{"type":"function","name":"initiateConditionalTransfer","inputs":[{"name":"recipient","type":"address","internalType":"address"},{"name":"destinationDomain","type":"uint32","internalType":"uint32"},{"name":"amount","type":"uint256","internalType":"uint256"},{"name":"maxFee","type":"uint256","internalType":"uint256"},{"name":"minFinalityThreshold","type":"uint32","internalType":"uint32"},{"name":"hookData","type":"bytes","internalType":"bytes"},{"name":"conditionDescription","type":"string","internalType":"string"}],"outputs":[{"name":"id","type":"uint256","internalType":"uint256"}],"stateMutability":"nonpayable"},{"type":"function","name":"nextId","inputs":[],"outputs":[{"name":"","type":"uint256","internalType":"uint256"}],"stateMutability":"view"},{"type":"function","name":"tokenMessengerV2","inputs":[],"outputs":[{"name":"","type":"address","internalType":"address"}],"stateMutability":"view"},{"type":"function","name":"transfers","inputs":[{"name":"","type":"uint256","internalType":"uint256"}],"outputs":[{"name":"sender","type":"address","internalType":"address"},{"name":"recipient","type":"address","internalType":"address"},{"name":"destinationDomain","type":"uint32","internalType":"uint32"},{"name":"token","type":"address","internalType":"address"},{"name":"amount","type":"uint256","internalType":"uint256"},{"name":"executed","type":"bool","internalType":"bool"},{"name":"cctpNonce","type":"uint64","internalType":"uint64"},{"name":"hookData","type":"bytes","internalType":"bytes"},{"name":"conditionDescription","type":"string","internalType":"string"}],"stateMutability":"view"},{"type":"function","name":"usdc","inputs":[],"outputs":[{"name":"","type":"address","internalType":"address"}],"stateMutability":"view"},{"type":"event","name":"TransferInitiated","inputs":[{"name":"id","type":"uint256","indexed":true,"internalType":"uint256"},{"name":"sender","type":"address","indexed":false,"internalType":"address"},{"name":"recipient","type":"address","indexed":false,"internalType":"address"},{"name":"destinationDomain","type":"uint32","indexed":false,"internalType":"uint32"},{"name":"amount","type":"uint256","indexed":false,"internalType":"uint256"},{"name":"cctpNonce","type":"uint64","indexed":false,"internalType":"uint64"},{"name":"hookData","type":"bytes","indexed":false,"internalType":"bytes"}],"anonymous":false}],"bytecode":{"object":"0x60c0346100b257601f6111bf38819003918201601f19168301916001600160401b038311848410176100b75780849260409485528339810103126100b257610052602061004b836100cd565b92016100cd565b9060805260a0526040516110dd90816100e282396080518181816102590152818161039d0152818161048d015261098b015260a051818181610350015281816103d901528181610442015281816105020152818161092c0152610cb90152f35b600080fd5b634e487b7160e01b600052604160045260246000fd5b51906001600160a01b03821682036100b25756fe608080604052600436101561001357600080fd5b60003560e01c9081633e413bee14610ca6575080635e8441d314610c5d57806361b8ce8c14610c3f578063822bf34614610b805780639377d71114610aa0578063965c461c14610288578063ae0026a5146102435763c16fe9071461007757600080fd5b3461023e57602036600319011261023e57606061010060405161009981610e25565b60008152600060208201526000604082015260008382015260006080820152600060a0820152600060c08201528260e08201520152600435600052600060205261023a6040600020600661018b604051926100f384610e25565b80546001600160a01b0390811685526001820154808216602087015260a090811c63ffffffff166040808801919091526002840154909216606087015260038301546080870152600483015460ff811615159187019190915260081c6001600160401b031660c0860152516101768161016f8160058601610d8f565b0382610e41565b60e085015261016f6040518094819301610d8f565b6101008201526040519182916020835260018060a01b03815116602084015260018060a01b03602082015116604084015263ffffffff604082015116606084015260018060a01b036060820151166080840152608081015160a084015260a0810151151560c08401526001600160401b0360c08201511660e084015260e0810151610100610226610120928383880152610140870190610d15565b92015190601f198584030190850152610d15565b0390f35b600080fd5b3461023e57600036600319011261023e576040517f00000000000000000000000000000000000000000000000000000000000000006001600160a01b03168152602090f35b3461023e5760e036600319011261023e576004356001600160a01b038116810361023e5763ffffffff602435818116810361023e5760843591808316830361023e5760a4356001600160401b03811161023e576102e9903690600401610ce8565b92909460c4356001600160401b03811161023e5761030b903690600401610ce8565b9690956001600160a01b03831615610a6a5760443515610a37576040516323b872dd60e01b8152336004820152306024820152604480359082015260208160648160007f00000000000000000000000000000000000000000000000000000000000000006001600160a01b03165af180156108ee57610a18575b5060405163095ea7b360e01b81526001600160a01b037f00000000000000000000000000000000000000000000000000000000000000008116600483015260448035602484015260209183919082906000907f0000000000000000000000000000000000000000000000000000000000000000165af180156108ee576109e9575b50856108fa578460405191634701287760e11b83526044356004840152818616602484015260018060a01b038516604484015260018060a01b037f00000000000000000000000000000000000000000000000000000000000000001660648401526000608484015260643560a48401521660c482015260208160e481600060018060a01b037f0000000000000000000000000000000000000000000000000000000000000000165af19081156108ee576000916108bf575b505b6001549660001988146108a95761055c9060018901600155604051996104e58b610e25565b338b526001600160a01b0386811660208d015287891660408d01527f00000000000000000000000000000000000000000000000000000000000000001660608c015260443560808c0152600160a08c01526001600160401b03841660c08c0152610550368a87610eba565b60e08c01523691610eba565b61010089015286600052600060205260406000209760018060a01b038151166bffffffffffffffffffffffff60a01b90818b5416178a5560018a0160018060a01b0360208401511681549063ffffffff60a01b604086015160a01b16916001600160401b0360c01b161717905560028a019060018060a01b0360608401511690825416179055608081015160038a01556004890160a08201511515815460ff68ffffffffffffffff0060c086015160081b1692169068ffffffffffffffffff19161717905560e08101518051906001600160401b03821161081457610651828c600561064a81830154610d55565b9101610f00565b602090601f8311600114610835576101009392916000918361082a575b50508160011b916000199060031b1c19161760058b01555b0151948551986001600160401b038a11610814578989976106b960209c6106b06006860154610d55565b60068601610f00565b8b90601f831160011461076c57926006836107569897947f0718e3309369c56ad4f59d59ada5a75dca37fb538f4c6c2fda76ab50a450d0669c9d97946001600160401b0397600092610761575b50508160011b916000199060031b1c1916179101555b60405197889733895260018060a01b03168d890152166040870152604435606087015216608085015260c060a085015260c0840191610e99565b0390a2604051908152f35b015190503880610706565b999493929190600683016000528c6000209a60005b601f19841681106107fa57506001837f0718e3309369c56ad4f59d59ada5a75dca37fb538f4c6c2fda76ab50a450d0669c9d6107569a999896946006946001600160401b039997601f198116106107e1575b505050811b0191015561071c565b015160001960f88460031b161c191690553880806107d3565b828201518d556001909c019b8d9b50918e01918e01610781565b634e487b7160e01b600052604160045260246000fd5b015190508c8061066e565b9060058c0160005260206000209160005b601f198516811061089157509183916001936101009695601f19811610610878575b505050811b0160058b0155610686565b015160001960f88460031b161c191690558c8080610868565b91926020600181928685015181550194019201610846565b634e487b7160e01b600052601160045260246000fd5b6108e1915060203d6020116108e7575b6108d98183610e41565b810190610e7a565b886104be565b503d6108cf565b6040513d6000823e3d90fd5b60405163779b432d60e01b815260448035600483015285871660248301526001600160a01b03858116918301919091527f000000000000000000000000000000000000000000000000000000000000000016606480830191909152600060848301523560a482015290851660c482015261010060e48201526020818061098561010482018a87610e99565b038160007f00000000000000000000000000000000000000000000000000000000000000006001600160a01b03165af19081156108ee576000916109ca575b506104c0565b6109e3915060203d6020116108e7576108d98183610e41565b886109c4565b610a0a9060203d602011610a11575b610a028183610e41565b810190610e62565b5088610406565b503d6109f8565b610a309060203d602011610a1157610a028183610e41565b5088610385565b60405162461bcd60e51b815260206004820152600b60248201526a16995c9bc8185b5bdd5b9d60aa1b6044820152606490fd5b60405162461bcd60e51b815260206004820152600e60248201526d16995c9bc81c9958da5c1a595b9d60921b6044820152606490fd5b3461023e57602036600319011261023e576004356000526000602052604060002060018060a01b039061023a6006610b7184845416936001600160401b0360018201548760028401541660038401549063ffffffff600486015493610b2a60405197610b1a89610b138160058501610d8f565b038a610e41565b610b13604051809c819301610d8f565b6040519b8c9b8c52811660208c015260a01c1660408a01526060890152608088015260ff8116151560a088015260081c1660c08601526101208060e0870152850190610d15565b90838203610100850152610d15565b3461023e57606036600319011261023e576001600160401b0360043581811161023e57610bb1903690600401610ce8565b916024356001600160a01b0381169081900361023e5760443591821161023e5761023a93610c1f610be9610c2b943690600401610ce8565b610c06604095929551978895606060208801526080870191610e99565b916040850152601f199485858403016060860152610e99565b03908101835282610e41565b604051918291602083526020830190610d15565b3461023e57600036600319011261023e576020600154604051908152f35b3461023e57602036600319011261023e576004356001600160401b03811161023e57610c98610c926020923690600401610ce8565b90610f54565b63ffffffff60405191168152f35b3461023e57600036600319011261023e577f00000000000000000000000000000000000000000000000000000000000000006001600160a01b03168152602090f35b9181601f8401121561023e578235916001600160401b03831161023e576020838186019501011161023e57565b919082519283825260005b848110610d41575050826000602080949584010152601f8019910116010190565b602081830181015184830182015201610d20565b90600182811c92168015610d85575b6020831014610d6f57565b634e487b7160e01b600052602260045260246000fd5b91607f1691610d64565b9060009291805491610da083610d55565b918282526001938481169081600014610e025750600114610dc2575b50505050565b90919394506000526020928360002092846000945b838610610dee575050505001019038808080610dbc565b805485870183015294019385908201610dd7565b9294505050602093945060ff191683830152151560051b01019038808080610dbc565b61012081019081106001600160401b0382111761081457604052565b90601f801991011681019081106001600160401b0382111761081457604052565b9081602091031261023e5751801515810361023e5790565b9081602091031261023e57516001600160401b038116810361023e5790565b908060209392818452848401376000828201840152601f01601f1916010190565b9291926001600160401b0382116108145760405191610ee3601f8201601f191660200184610e41565b82948184528183011161023e578281602093846000960137010152565b90601f8111610f0e57505050565b600091825260208220906020601f850160051c83019410610f4a575b601f0160051c01915b828110610f3f57505050565b818155600101610f33565b9092508290610f2a565b610f5f913691610eba565b602081519101207f632b4be84e76657ffc9f7b17118646f4c4ec003c4db5de3aedcd9247bdabc62581146110a1577ffe475ef34cf07756fbb098d68b159e716cda970a2f09d11f4d12fed8559d3af1811461109b577f563fae2db16567e7c8de7ab296c24bee337018b6040b5ac271d22d493a2fb29a8114611095577fef4c0af606aef5c7bd406f6055a17c4a9375c2231f890f3396d87d25727af9b0811461108f577f3ca140bda47e3fde66d228cfc3f8c710a0188449f539a793b90037e8131768028114611089577fd75728ef1b39537283c99dc247858d213d7882f9b4850393eebe83a891b00ee7146110845760405162461bcd60e51b815260206004820152600d60248201526c2ab735b737bbb71031b430b4b760991b6044820152606490fd5b600690565b50600390565b50600290565b50600190565b50600090565b50601a9056fea2646970667358221220b42026bee300749d1a723bcafccdcc1508fd4a45ecab1505cdf3038e8d2823dc64736f6c63430008140033","linkReferences":{}},"methodIdentifiers":{"encodeHookData(string,address,bytes)":"822bf346","getDomainId(string)":"5e8441d3","getTransfer(uint256)":"c16fe907","initiateConditionalTransfer(address,uint32,uint256,uint256,uint32,bytes,string)":"965c461c","nextId()":"61b8ce8c","tokenMessengerV2()":"ae0026a5","transfers(uint256)":"9377d711","usdc()":"3e413bee"},"id":17}