{"abi":[{"type":"constructor","inputs":[{"name":"_tokenMessengerV2","type":"address","internalType":"address"},{"name":"_usdc","type":"address","internalType":"address"}],"stateMutability":"nonpayable"},{"type":"function","name":"encodeHookData","inputs":[{"name":"conditionType","type":"string","internalType":"string"},{"name":"target","type":"address","internalType":"address"},{"name":"callData","type":"bytes","internalType":"bytes"}],"outputs":[{"name":"","type":"bytes","internalType":"bytes"}],"stateMutability":"pure"},{"type":"function","name":"getDomainId","inputs":[{"name":"chainName","type":"string","internalType":"string"}],"outputs":[{"name":"","type":"uint32","internalType":"uint32"}],"stateMutability":"pure"},{"type":"function","name":"getTransfer","inputs":[{"name":"id","type":"uint256","internalType":"uint256"}],"outputs":[{"name":"","type":"tuple","internalType":"struct CrosschainEscrow.Transfer","components":[{"name":"sender","type":"address","internalType":"address"},{"name":"recipient","type":"address","internalType":"address"},{"name":"destinationDomain","type":"uint32","internalType":"uint32"},{"name":"token","type":"address","internalType":"address"},{"name":"amount","type":"uint256","internalType":"uint256"},{"name":"executed","type":"bool","internalType":"bool"},{"name":"cctpNonce","type":"uint64","internalType":"uint64"},{"name":"hookData","type":"bytes","internalType":"bytes"},{"name":"conditionDescription","type":"string","internalType":"string"}]}],"stateMutability":"view"},{"type":"function","name":"initiateConditionalTransfer","inputs":[{"name":"recipient","type":"address","internalType":"address"},{"name":"destinationDomain","type":"uint32","internalType":"uint32"},{"name":"amount","type":"uint256","internalType":"uint256"},{"name":"maxFee","type":"uint256","internalType":"uint256"},{"name":"minFinalityThreshold","type":"uint32","internalType":"uint32"},{"name":"hookData","type":"bytes","internalType":"bytes"},{"name":"conditionDescription","type":"string","internalType":"string"}],"outputs":[{"name":"id","type":"uint256","internalType":"uint256"}],"stateMutability":"nonpayable"},{"type":"function","name":"nextId","inputs":[],"outputs":[{"name":"","type":"uint256","internalType":"uint256"}],"stateMutability":"view"},{"type":"function","name":"owner","inputs":[],"outputs":[{"name":"","type":"address","internalType":"address"}],"stateMutability":"view"},{"type":"function","name":"tokenMessengerV2","inputs":[],"outputs":[{"name":"","type":"address","internalType":"address"}],"stateMutability":"view"},{"type":"function","name":"transfers","inputs":[{"name":"","type":"uint256","internalType":"uint256"}],"outputs":[{"name":"sender","type":"address","internalType":"address"},{"name":"recipient","type":"address","internalType":"address"},{"name":"destinationDomain","type":"uint32","internalType":"uint32"},{"name":"token","type":"address","internalType":"address"},{"name":"amount","type":"uint256","internalType":"uint256"},{"name":"executed","type":"bool","internalType":"bool"},{"name":"cctpNonce","type":"uint64","internalType":"uint64"},{"name":"hookData","type":"bytes","internalType":"bytes"},{"name":"conditionDescription","type":"string","internalType":"string"}],"stateMutability":"view"},{"type":"function","name":"usdc","inputs":[],"outputs":[{"name":"","type":"address","internalType":"address"}],"stateMutability":"view"},{"type":"event","name":"TransferInitiated","inputs":[{"name":"id","type":"uint256","indexed":true,"internalType":"uint256"},{"name":"sender","type":"address","indexed":false,"internalType":"address"},{"name":"recipient","type":"address","indexed":false,"internalType":"address"},{"name":"destinationDomain","type":"uint32","indexed":false,"internalType":"uint32"},{"name":"amount","type":"uint256","indexed":false,"internalType":"uint256"},{"name":"cctpNonce","type":"uint64","indexed":false,"internalType":"uint64"},{"name":"hookData","type":"bytes","indexed":false,"internalType":"bytes"}],"anonymous":false}],"bytecode":{"object":"0x60c0346100d457601f61126c38819003918201601f19168301916001600160401b038311848410176100d95780849260409485528339810103126100d457610052602061004b836100ef565b92016100ef565b600080546001600160a01b0319163317905560809190915260a052604051611168908161010482396080518181816102590152818161039d0152818161040d015281816104b90152818161090501526109c2015260a051818181610350015281816103d8015281816104710152818161052b015281816109650152610d350152f35b600080fd5b634e487b7160e01b600052604160045260246000fd5b51906001600160a01b03821682036100d45756fe608080604052600436101561001357600080fd5b600090813560e01c9081633e413bee14610d21575080635e8441d314610cd757806361b8ce8c14610cb9578063822bf34614610bf35780638da5cb5b14610bcc5780639377d71114610aed578063965c461c14610288578063ae0026a5146102435763c16fe9071461008457600080fd5b3461024057602036600319011261024057604061023c91606061010083516100ab81610ecf565b838152836020820152838582015283838201528360808201528360a08201528360c08201528260e082015201526004358152600160205220600661018d604051926100f584610ecf565b80546001600160a01b0390811685526001820154808216602087015260a090811c63ffffffff166040808801919091526002840154909216606087015260038301546080870152600483015460ff811615159187019190915260081c6001600160401b031660c086015251610178816101718160058601610e10565b0382610eeb565b60e08501526101716040518094819301610e10565b6101008201526040519182916020835260018060a01b03815116602084015260018060a01b03602082015116604084015263ffffffff604082015116606084015260018060a01b036060820151166080840152608081015160a084015260a0810151151560c08401526001600160401b0360c08201511660e084015260e0810151610100610228610120928383880152610140870190610d96565b92015190601f198584030190850152610d96565b0390f35b80fd5b50346102405780600319360112610240576040517f00000000000000000000000000000000000000000000000000000000000000006001600160a01b03168152602090f35b50346102405760e0366003190112610240576004356001600160a01b03811681036108fd5763ffffffff6024358181168103610ae957608435928284168403610ae55760a4356001600160401b038111610ae1576102ea903690600401610d64565b9360c4356001600160401b0381116108ee5761030a903690600401610d64565b90966001600160a01b03851615610aab5760443515610a78576040516323b872dd60e01b81523360048201523060248201526044803590820152899190602081606481867f00000000000000000000000000000000000000000000000000000000000000006001600160a01b03165af18015610a4e57610a59575b5060405163095ea7b360e01b81526001600160a01b037f000000000000000000000000000000000000000000000000000000000000000081166004830152604480356024840152602091839190829087907f0000000000000000000000000000000000000000000000000000000000000000165af18015610a4e57610a1f575b5087610901577f00000000000000000000000000000000000000000000000000000000000000006001600160a01b03163b156108fd578360405191634701287760e11b83526044356004840152818916602484015260018060a01b038816604484015260018060a01b037f000000000000000000000000000000000000000000000000000000000000000016606484015283608484015260643560a48401521660c4820152818160e4818360018060a01b037f0000000000000000000000000000000000000000000000000000000000000000165af180156108f2576108da575b50505b6002549660001988146108c65761057d90600189016002556040519261050e84610ecf565b3384526001600160a01b03878116602086015288861660408601527f00000000000000000000000000000000000000000000000000000000000000001660608501526044356080850152600160a085015260c084018b9052610571368a88610f45565b60e08501523691610f45565b6101008201528688526001602052604088209060018060a01b038151166bffffffffffffffffffffffff60a01b90818454161783556001830160018060a01b0360208401511681549063ffffffff60a01b604086015160a01b16916001600160401b0360c01b1617179055600283019060018060a01b0360608401511690825416179055608081015160038301556004820160a08201511515815460ff68ffffffffffffffff0060c086015160081b1692169068ffffffffffffffffff19161717905560e08101518051906001600160401b0382116108b257610670826106676005870154610dd6565b60058701610f8b565b602090601f8311600114610841576101009392918c9183610836575b50508160011b916000199060031b1c19161760058401555b01518051906001600160401b03821161082257918160209a936106dc8b99989796946106d36006860154610dd6565b60068601610f8b565b8b90601f831160011461078557827f0718e3309369c56ad4f59d59ada5a75dca37fb538f4c6c2fda76ab50a450d0669a9b959387959360069361076f9a999261077a575b50508160011b916000199060031b1c1916179101555b60405196879633885260018060a01b03168c8801521660408601526044356060860152608085015260c060a085015260c0840191610f24565b0390a2604051908152f35b015190503880610720565b9994939291906006830185528c85209a855b601f19841681106108085750827f0718e3309369c56ad4f59d59ada5a75dca37fb538f4c6c2fda76ab50a450d0669b9c60069360019361076f9b9a99989796601f198116106107ef575b505050811b01910155610736565b015160001960f88460031b161c191690553880806107e1565b828201518d556001909c019b8d9b50918e01918e01610797565b634e487b7160e01b8a52604160045260248afd5b01519050388061068c565b90600585018c5260208c20918c5b601f198516811061089a57509183916001936101009695601f19811610610881575b505050811b0160058401556106a4565b015160001960f88460031b161c19169055388080610871565b9192602060018192868501518155019401920161084f565b634e487b7160e01b8b52604160045260248bfd5b634e487b7160e01b89526011600452602489fd5b6108e390610ea6565b6108ee5787386104e6565b8780fd5b6040513d84823e3d90fd5b5080fd5b90507f00000000000000000000000000000000000000000000000000000000000000006001600160a01b03163b15610a1b5760405163779b432d60e01b815260448035600483015287851660248301526001600160a01b03878116918301919091527f000000000000000000000000000000000000000000000000000000000000000016606480830191909152608482018b90523560a482015290831660c482015261010060e48201528881806109bd61010482018b89610f24565b0381837f00000000000000000000000000000000000000000000000000000000000000006001600160a01b03165af18015610a10576109fd575b506104e9565b610a0990989198610ea6565b96386109f7565b6040513d8b823e3d90fd5b8880fd5b610a409060203d602011610a47575b610a388183610eeb565b810190610f0c565b5038610405565b503d610a2e565b6040513d85823e3d90fd5b610a719060203d602011610a4757610a388183610eeb565b5038610385565b60405162461bcd60e51b815260206004820152600b60248201526a16995c9bc8185b5bdd5b9d60aa1b6044820152606490fd5b60405162461bcd60e51b815260206004820152600e60248201526d16995c9bc81c9958da5c1a595b9d60921b6044820152606490fd5b8580fd5b8480fd5b8380fd5b503461024057602036600319011261024057604090600435815260016020522060018060a01b039061023c6006610bbd84845416936001600160401b0360018201548760028401541660038401549063ffffffff600486015493610b7660405197610b6689610b5f8160058501610e10565b038a610eeb565b610b5f604051809c819301610e10565b6040519b8c9b8c52811660208c015260a01c1660408a01526060890152608088015260ff8116151560a088015260081c1660c08601526101208060e0870152850190610d96565b90838203610100850152610d96565b5034610240578060031936011261024057546040516001600160a01b039091168152602090f35b5034610240576060366003190112610240576001600160401b03600435818111610cb557610c25903690600401610d64565b90916024359360018060a01b03851680950361024057604435918211610240575092610ca191610c95610c5f61023c963690600401610d64565b610c7c604095929551978895606060208801526080870191610f24565b916040850152601f199485858403016060860152610f24565b03908101835282610eeb565b604051918291602083526020830190610d96565b8280fd5b50346102405780600319360112610240576020600254604051908152f35b503461024057602036600319011261024057600435906001600160401b038211610240576020610d13610d0d3660048601610d64565b90610fdf565b63ffffffff60405191168152f35b9050346108fd57816003193601126108fd577f00000000000000000000000000000000000000000000000000000000000000006001600160a01b03168152602090f35b9181601f84011215610d91578235916001600160401b038311610d915760208381860195010111610d9157565b600080fd5b919082519283825260005b848110610dc2575050826000602080949584010152601f8019910116010190565b602081830181015184830182015201610da1565b90600182811c92168015610e06575b6020831014610df057565b634e487b7160e01b600052602260045260246000fd5b91607f1691610de5565b9060009291805491610e2183610dd6565b918282526001938481169081600014610e835750600114610e43575b50505050565b90919394506000526020928360002092846000945b838610610e6f575050505001019038808080610e3d565b805485870183015294019385908201610e58565b9294505050602093945060ff191683830152151560051b01019038808080610e3d565b6001600160401b038111610eb957604052565b634e487b7160e01b600052604160045260246000fd5b61012081019081106001600160401b03821117610eb957604052565b90601f801991011681019081106001600160401b03821117610eb957604052565b90816020910312610d9157518015158103610d915790565b908060209392818452848401376000828201840152601f01601f1916010190565b9291926001600160401b038211610eb95760405191610f6e601f8201601f191660200184610eeb565b829481845281830111610d91578281602093846000960137010152565b90601f8111610f9957505050565b600091825260208220906020601f850160051c83019410610fd5575b601f0160051c01915b828110610fca57505050565b818155600101610fbe565b9092508290610fb5565b610fea913691610f45565b602081519101207f632b4be84e76657ffc9f7b17118646f4c4ec003c4db5de3aedcd9247bdabc625811461112c577ffe475ef34cf07756fbb098d68b159e716cda970a2f09d11f4d12fed8559d3af18114611126577f563fae2db16567e7c8de7ab296c24bee337018b6040b5ac271d22d493a2fb29a8114611120577fef4c0af606aef5c7bd406f6055a17c4a9375c2231f890f3396d87d25727af9b0811461111a577f3ca140bda47e3fde66d228cfc3f8c710a0188449f539a793b90037e8131768028114611114577fd75728ef1b39537283c99dc247858d213d7882f9b4850393eebe83a891b00ee71461110f5760405162461bcd60e51b815260206004820152600d60248201526c2ab735b737bbb71031b430b4b760991b6044820152606490fd5b600690565b50600390565b50600290565b50600190565b50600090565b50601a9056fea2646970667358221220e7c21825d71f01fb1c6f610ebfa9692e801a6e4d3b2d095acde65e6fd354f55664736f6c63430008140033","linkReferences":{}},"methodIdentifiers":{"encodeHookData(string,address,bytes)":"822bf346","getDomainId(string)":"5e8441d3","getTransfer(uint256)":"c16fe907","initiateConditionalTransfer(address,uint32,uint256,uint256,uint32,bytes,string)":"965c461c","nextId()":"61b8ce8c","owner()":"8da5cb5b","tokenMessengerV2()":"ae0026a5","transfers(uint256)":"9377d711","usdc()":"3e413bee"},"id":17}